{
  "_format": "hh-sol-artifact-1",
  "contractName": "BlacklistControl",
  "sourceName": "contracts/BlacklistControl.sol",
  "abi": [
    {
      "inputs": [],
      "stateMutability": "nonpayable",
      "type": "constructor"
    },
    {
      "anonymous": false,
      "inputs": [
        {
          "indexed": false,
          "internalType": "address",
          "name": "user",
          "type": "address"
        }
      ],
      "name": "UserBlacklisted",
      "type": "event"
    },
    {
      "anonymous": false,
      "inputs": [
        {
          "indexed": false,
          "internalType": "address",
          "name": "user",
          "type": "address"
        }
      ],
      "name": "UserRemovedFromBlacklist",
      "type": "event"
    },
    {
      "inputs": [],
      "name": "admin",
      "outputs": [
        {
          "internalType": "address",
          "name": "",
          "type": "address"
        }
      ],
      "stateMutability": "view",
      "type": "function"
    },
    {
      "inputs": [
        {
          "internalType": "address",
          "name": "_user",
          "type": "address"
        }
      ],
      "name": "blacklistUser",
      "outputs": [],
      "stateMutability": "nonpayable",
      "type": "function"
    },
    {
      "inputs": [
        {
          "internalType": "address",
          "name": "",
          "type": "address"
        }
      ],
      "name": "blacklisted",
      "outputs": [
        {
          "internalType": "bool",
          "name": "",
          "type": "bool"
        }
      ],
      "stateMutability": "view",
      "type": "function"
    },
    {
      "inputs": [
        {
          "internalType": "address",
          "name": "_user",
          "type": "address"
        }
      ],
      "name": "isBlacklisted",
      "outputs": [
        {
          "internalType": "bool",
          "name": "",
          "type": "bool"
        }
      ],
      "stateMutability": "view",
      "type": "function"
    },
    {
      "inputs": [
        {
          "internalType": "address",
          "name": "_user",
          "type": "address"
        }
      ],
      "name": "removeFromBlacklist",
      "outputs": [],
      "stateMutability": "nonpayable",
      "type": "function"
    }
  ],
  "bytecode": "0x6080604052348015600f57600080fd5b506028674c392f4c6c03e37d60c01b608460201b60201c565b604067bdefbb702d0e527260c01b608460201b60201c565b336000806101000a81548173ffffffffffffffffffffffffffffffffffffffff021916908373ffffffffffffffffffffffffffffffffffffffff1602179055506087565b50565b6107d3806100966000396000f3fe608060405234801561001057600080fd5b50600436106100575760003560e01c8063537df3b61461005c578063dbac26e914610078578063f851a440146100a8578063fcbca456146100c6578063fe575a87146100e2575b600080fd5b6100766004803603810190610071919061066d565b610112565b005b610092600480360381019061008d919061066d565b610322565b60405161009f91906106b5565b60405180910390f35b6100b0610342565b6040516100bd91906106df565b60405180910390f35b6100e060048036038101906100db919061066d565b610366565b005b6100fc60048036038101906100f7919061066d565b610575565b60405161010991906106b5565b60405180910390f35b61012667b905b1adbcb3665c60c01b610607565b61013a6762a87dd84947187660c01b610607565b61014e67bdc651370e1895f160c01b610607565b61016267431636f03f3e702860c01b610607565b61017667858e65d19b3f371360c01b610607565b60008054906101000a900473ffffffffffffffffffffffffffffffffffffffff1673ffffffffffffffffffffffffffffffffffffffff163373ffffffffffffffffffffffffffffffffffffffff1614610204576040517f08c379a00000000000000000000000000000000000000000000000000000000081526004016101fb9061077d565b60405180910390fd5b61021867d2dd86cf4fb0be0160c01b610607565b61022c67ec43525350fb6f3360c01b610607565b61024067acf19a2676e5042d60c01b610607565b6102546778cf3073a257613360c01b610607565b61026867229f8de2e366dceb60c01b610607565b6000600160008373ffffffffffffffffffffffffffffffffffffffff1673ffffffffffffffffffffffffffffffffffffffff16815260200190815260200160002060006101000a81548160ff0219169083151502179055506102d467775d0621f989807960c01b610607565b6102e8675322319952021e9f60c01b610607565b7f35bef39900b57de8fa0e0c77219a7f3d0f1e79ca057d456e02a590e8631413cf8160405161031791906106df565b60405180910390a150565b60016020528060005260406000206000915054906101000a900460ff1681565b60008054906101000a900473ffffffffffffffffffffffffffffffffffffffff1681565b61037a6714ae6cd82f6df91d60c01b610607565b61038e6762a87dd84947187660c01b610607565b6103a267bdc651370e1895f160c01b610607565b6103b667431636f03f3e702860c01b610607565b6103ca67858e65d19b3f371360c01b610607565b60008054906101000a900473ffffffffffffffffffffffffffffffffffffffff1673ffffffffffffffffffffffffffffffffffffffff163373ffffffffffffffffffffffffffffffffffffffff1614610458576040517f08c379a000000000000000000000000000000000000000000000000000000000815260040161044f9061077d565b60405180910390fd5b61046c67d2dd86cf4fb0be0160c01b610607565b61048067ec43525350fb6f3360c01b610607565b6104946776a74956a712e7a060c01b610607565b6104a8673d225fda99242ae860c01b610607565b6104bc67cbe5d91aa3218e1860c01b610607565b60018060008373ffffffffffffffffffffffffffffffffffffffff1673ffffffffffffffffffffffffffffffffffffffff16815260200190815260200160002060006101000a81548160ff021916908315150217905550610527675de038ad97eef80160c01b610607565b61053b67a06ef3f6518acd4c60c01b610607565b7f7f8b7dc89dae85811a7a85800b892b5816ad5d381c856f1b56490f8fc470c9cb8160405161056a91906106df565b60405180910390a150565b600061058b67555ec0596a67d55260c01b610607565b61059f67f82ae9507624379c60c01b610607565b6105b367489b6e48589c4a0360c01b610607565b600160008373ffffffffffffffffffffffffffffffffffffffff1673ffffffffffffffffffffffffffffffffffffffff16815260200190815260200160002060009054906101000a900460ff169050919050565b50565b600080fd5b600073ffffffffffffffffffffffffffffffffffffffff82169050919050565b600061063a8261060f565b9050919050565b61064a8161062f565b811461065557600080fd5b50565b60008135905061066781610641565b92915050565b6000602082840312156106835761068261060a565b5b600061069184828501610658565b91505092915050565b60008115159050919050565b6106af8161069a565b82525050565b60006020820190506106ca60008301846106a6565b92915050565b6106d98161062f565b82525050565b60006020820190506106f460008301846106d0565b92915050565b600082825260208201905092915050565b7f4f6e6c792061646d696e2063616e20706572666f726d2074686973206163746960008201527f6f6e000000000000000000000000000000000000000000000000000000000000602082015250565b60006107676022836106fa565b91506107728261070b565b604082019050919050565b600060208201905081810360008301526107968161075a565b905091905056fea26469706673582212208663e1b4175d216b6c692c63cf0579d08dd1d3d1b88d9c60672eade1c86717d564736f6c634300081c0033",
  "linkReferences": {},
  "deployedLinkReferences": {}
}