{
  "_format": "hh-sol-artifact-1",
  "contractName": "Marketplace",
  "sourceName": "contracts/Marketplace.sol",
  "abi": [
    {
      "inputs": [
        {
          "internalType": "address",
          "name": "_tokenContract",
          "type": "address"
        },
        {
          "internalType": "address",
          "name": "_admin",
          "type": "address"
        },
        {
          "internalType": "address",
          "name": "_usdtContract",
          "type": "address"
        }
      ],
      "stateMutability": "nonpayable",
      "type": "constructor"
    },
    {
      "inputs": [
        {
          "internalType": "address",
          "name": "owner",
          "type": "address"
        }
      ],
      "name": "OwnableInvalidOwner",
      "type": "error"
    },
    {
      "inputs": [
        {
          "internalType": "address",
          "name": "account",
          "type": "address"
        }
      ],
      "name": "OwnableUnauthorizedAccount",
      "type": "error"
    },
    {
      "anonymous": false,
      "inputs": [
        {
          "indexed": true,
          "internalType": "address",
          "name": "owner",
          "type": "address"
        }
      ],
      "name": "AllTokensRemoved",
      "type": "event"
    },
    {
      "anonymous": false,
      "inputs": [
        {
          "indexed": true,
          "internalType": "address",
          "name": "owner",
          "type": "address"
        },
        {
          "indexed": true,
          "internalType": "uint256",
          "name": "tokenId",
          "type": "uint256"
        },
        {
          "indexed": false,
          "internalType": "uint256",
          "name": "amount",
          "type": "uint256"
        }
      ],
      "name": "AmountDecreased",
      "type": "event"
    },
    {
      "anonymous": false,
      "inputs": [
        {
          "indexed": false,
          "internalType": "uint256",
          "name": "tokenId",
          "type": "uint256"
        },
        {
          "indexed": false,
          "internalType": "uint256",
          "name": "category",
          "type": "uint256"
        },
        {
          "indexed": false,
          "internalType": "bool",
          "name": "isNFT",
          "type": "bool"
        }
      ],
      "name": "Debug",
      "type": "event"
    },
    {
      "anonymous": false,
      "inputs": [
        {
          "indexed": true,
          "internalType": "address",
          "name": "seller",
          "type": "address"
        },
        {
          "indexed": true,
          "internalType": "address",
          "name": "owner",
          "type": "address"
        },
        {
          "indexed": false,
          "internalType": "uint256",
          "name": "totalAmount",
          "type": "uint256"
        },
        {
          "indexed": false,
          "internalType": "uint256",
          "name": "feeAmount",
          "type": "uint256"
        },
        {
          "indexed": false,
          "internalType": "uint256",
          "name": "sellerAmount",
          "type": "uint256"
        }
      ],
      "name": "FeeProcessed",
      "type": "event"
    },
    {
      "anonymous": false,
      "inputs": [
        {
          "indexed": true,
          "internalType": "address",
          "name": "previousOwner",
          "type": "address"
        },
        {
          "indexed": true,
          "internalType": "address",
          "name": "newOwner",
          "type": "address"
        }
      ],
      "name": "OwnershipTransferred",
      "type": "event"
    },
    {
      "anonymous": false,
      "inputs": [
        {
          "indexed": true,
          "internalType": "address",
          "name": "owner",
          "type": "address"
        },
        {
          "indexed": true,
          "internalType": "uint256",
          "name": "tokenId",
          "type": "uint256"
        },
        {
          "indexed": false,
          "internalType": "uint256",
          "name": "newPrice",
          "type": "uint256"
        }
      ],
      "name": "PriceUpdated",
      "type": "event"
    },
    {
      "anonymous": false,
      "inputs": [
        {
          "indexed": false,
          "internalType": "uint256",
          "name": "tokenId",
          "type": "uint256"
        }
      ],
      "name": "TokenAvailable",
      "type": "event"
    },
    {
      "anonymous": false,
      "inputs": [
        {
          "indexed": false,
          "internalType": "uint256",
          "name": "tokenId",
          "type": "uint256"
        },
        {
          "indexed": false,
          "internalType": "string",
          "name": "uri",
          "type": "string"
        }
      ],
      "name": "TokenMetadataUpdated",
      "type": "event"
    },
    {
      "anonymous": false,
      "inputs": [
        {
          "indexed": true,
          "internalType": "address",
          "name": "owner",
          "type": "address"
        },
        {
          "indexed": false,
          "internalType": "uint256[]",
          "name": "tokenIds",
          "type": "uint256[]"
        },
        {
          "indexed": false,
          "internalType": "uint256[]",
          "name": "amounts",
          "type": "uint256[]"
        },
        {
          "indexed": false,
          "internalType": "uint256[]",
          "name": "prices",
          "type": "uint256[]"
        }
      ],
      "name": "TokensAdded",
      "type": "event"
    },
    {
      "anonymous": false,
      "inputs": [
        {
          "indexed": true,
          "internalType": "address",
          "name": "buyer",
          "type": "address"
        },
        {
          "indexed": false,
          "internalType": "uint256[]",
          "name": "tokenIds",
          "type": "uint256[]"
        },
        {
          "indexed": false,
          "internalType": "uint256[]",
          "name": "amounts",
          "type": "uint256[]"
        }
      ],
      "name": "TokensBought",
      "type": "event"
    },
    {
      "anonymous": false,
      "inputs": [
        {
          "indexed": false,
          "internalType": "address",
          "name": "user",
          "type": "address"
        }
      ],
      "name": "UserBlacklisted",
      "type": "event"
    },
    {
      "anonymous": false,
      "inputs": [
        {
          "indexed": false,
          "internalType": "address",
          "name": "user",
          "type": "address"
        }
      ],
      "name": "UserRemovedFromBlacklist",
      "type": "event"
    },
    {
      "inputs": [
        {
          "internalType": "uint256[]",
          "name": "ids",
          "type": "uint256[]"
        },
        {
          "internalType": "uint256[]",
          "name": "amounts",
          "type": "uint256[]"
        },
        {
          "internalType": "uint256[]",
          "name": "prices",
          "type": "uint256[]"
        }
      ],
      "name": "addTokens",
      "outputs": [],
      "stateMutability": "nonpayable",
      "type": "function"
    },
    {
      "inputs": [],
      "name": "admin",
      "outputs": [
        {
          "internalType": "address",
          "name": "",
          "type": "address"
        }
      ],
      "stateMutability": "view",
      "type": "function"
    },
    {
      "inputs": [
        {
          "internalType": "uint256",
          "name": "_tokenId",
          "type": "uint256"
        }
      ],
      "name": "anyOwners",
      "outputs": [
        {
          "internalType": "bool",
          "name": "",
          "type": "bool"
        }
      ],
      "stateMutability": "view",
      "type": "function"
    },
    {
      "inputs": [
        {
          "internalType": "uint256",
          "name": "_tokenId",
          "type": "uint256"
        }
      ],
      "name": "availableAmount",
      "outputs": [
        {
          "internalType": "uint256",
          "name": "",
          "type": "uint256"
        }
      ],
      "stateMutability": "view",
      "type": "function"
    },
    {
      "inputs": [
        {
          "internalType": "uint256",
          "name": "",
          "type": "uint256"
        }
      ],
      "name": "availableTokenIds",
      "outputs": [
        {
          "internalType": "bool",
          "name": "",
          "type": "bool"
        }
      ],
      "stateMutability": "view",
      "type": "function"
    },
    {
      "inputs": [
        {
          "internalType": "address",
          "name": "_user",
          "type": "address"
        }
      ],
      "name": "blacklistUser",
      "outputs": [],
      "stateMutability": "nonpayable",
      "type": "function"
    },
    {
      "inputs": [
        {
          "internalType": "address",
          "name": "",
          "type": "address"
        }
      ],
      "name": "blacklisted",
      "outputs": [
        {
          "internalType": "bool",
          "name": "",
          "type": "bool"
        }
      ],
      "stateMutability": "view",
      "type": "function"
    },
    {
      "inputs": [
        {
          "internalType": "uint256[]",
          "name": "ids",
          "type": "uint256[]"
        },
        {
          "internalType": "uint256[]",
          "name": "amounts",
          "type": "uint256[]"
        }
      ],
      "name": "buy",
      "outputs": [],
      "stateMutability": "payable",
      "type": "function"
    },
    {
      "inputs": [
        {
          "internalType": "uint256",
          "name": "tokenId",
          "type": "uint256"
        },
        {
          "internalType": "uint256",
          "name": "",
          "type": "uint256"
        }
      ],
      "name": "canBePurchasedFrom",
      "outputs": [
        {
          "internalType": "address",
          "name": "owners",
          "type": "address"
        }
      ],
      "stateMutability": "view",
      "type": "function"
    },
    {
      "inputs": [
        {
          "internalType": "uint256",
          "name": "tokenId",
          "type": "uint256"
        },
        {
          "internalType": "uint256",
          "name": "amountToDecrease",
          "type": "uint256"
        }
      ],
      "name": "decreaseAmount",
      "outputs": [],
      "stateMutability": "nonpayable",
      "type": "function"
    },
    {
      "inputs": [
        {
          "internalType": "uint256",
          "name": "currentId",
          "type": "uint256"
        },
        {
          "internalType": "uint256",
          "name": "amount",
          "type": "uint256"
        }
      ],
      "name": "decreaseTokensInStock",
      "outputs": [],
      "stateMutability": "nonpayable",
      "type": "function"
    },
    {
      "inputs": [],
      "name": "fee",
      "outputs": [
        {
          "internalType": "uint256",
          "name": "",
          "type": "uint256"
        }
      ],
      "stateMutability": "view",
      "type": "function"
    },
    {
      "inputs": [
        {
          "internalType": "enum Marketplace.Category",
          "name": "category",
          "type": "uint8"
        },
        {
          "internalType": "bool",
          "name": "onlyNFT",
          "type": "bool"
        }
      ],
      "name": "getTokens",
      "outputs": [
        {
          "internalType": "uint256[]",
          "name": "",
          "type": "uint256[]"
        }
      ],
      "stateMutability": "view",
      "type": "function"
    },
    {
      "inputs": [
        {
          "internalType": "address",
          "name": "_owner",
          "type": "address"
        }
      ],
      "name": "getTokensByOwner",
      "outputs": [
        {
          "internalType": "uint256[]",
          "name": "",
          "type": "uint256[]"
        }
      ],
      "stateMutability": "view",
      "type": "function"
    },
    {
      "inputs": [
        {
          "internalType": "address",
          "name": "_user",
          "type": "address"
        }
      ],
      "name": "isBlacklisted",
      "outputs": [
        {
          "internalType": "bool",
          "name": "",
          "type": "bool"
        }
      ],
      "stateMutability": "view",
      "type": "function"
    },
    {
      "inputs": [],
      "name": "maxTokenId",
      "outputs": [
        {
          "internalType": "uint256",
          "name": "",
          "type": "uint256"
        }
      ],
      "stateMutability": "view",
      "type": "function"
    },
    {
      "inputs": [
        {
          "internalType": "address",
          "name": "owner",
          "type": "address"
        },
        {
          "internalType": "uint256",
          "name": "tokenId",
          "type": "uint256"
        }
      ],
      "name": "ownedTokens",
      "outputs": [
        {
          "internalType": "uint256",
          "name": "amount",
          "type": "uint256"
        },
        {
          "internalType": "uint256",
          "name": "price",
          "type": "uint256"
        }
      ],
      "stateMutability": "view",
      "type": "function"
    },
    {
      "inputs": [],
      "name": "owner",
      "outputs": [
        {
          "internalType": "address",
          "name": "",
          "type": "address"
        }
      ],
      "stateMutability": "view",
      "type": "function"
    },
    {
      "inputs": [],
      "name": "removeAllTokens",
      "outputs": [],
      "stateMutability": "nonpayable",
      "type": "function"
    },
    {
      "inputs": [
        {
          "internalType": "uint256",
          "name": "currentId",
          "type": "uint256"
        },
        {
          "internalType": "address",
          "name": "currentOwner",
          "type": "address"
        }
      ],
      "name": "removeCanBePurchasedFrom",
      "outputs": [],
      "stateMutability": "nonpayable",
      "type": "function"
    },
    {
      "inputs": [
        {
          "internalType": "address",
          "name": "_user",
          "type": "address"
        }
      ],
      "name": "removeFromBlacklist",
      "outputs": [],
      "stateMutability": "nonpayable",
      "type": "function"
    },
    {
      "inputs": [
        {
          "internalType": "uint256",
          "name": "currentId",
          "type": "uint256"
        },
        {
          "internalType": "address",
          "name": "currentOwner",
          "type": "address"
        }
      ],
      "name": "removeOwnedTokens",
      "outputs": [],
      "stateMutability": "nonpayable",
      "type": "function"
    },
    {
      "inputs": [
        {
          "internalType": "uint256",
          "name": "currentId",
          "type": "uint256"
        },
        {
          "internalType": "address",
          "name": "currentOwner",
          "type": "address"
        }
      ],
      "name": "removeTokensByOwner",
      "outputs": [],
      "stateMutability": "nonpayable",
      "type": "function"
    },
    {
      "inputs": [],
      "name": "renounceOwnership",
      "outputs": [],
      "stateMutability": "nonpayable",
      "type": "function"
    },
    {
      "inputs": [
        {
          "internalType": "uint256",
          "name": "tokenId",
          "type": "uint256"
        },
        {
          "internalType": "enum Marketplace.Category",
          "name": "category",
          "type": "uint8"
        },
        {
          "internalType": "bool",
          "name": "_isNFT",
          "type": "bool"
        }
      ],
      "name": "setTokenInfo",
      "outputs": [],
      "stateMutability": "nonpayable",
      "type": "function"
    },
    {
      "inputs": [
        {
          "internalType": "uint256",
          "name": "tokenId",
          "type": "uint256"
        },
        {
          "internalType": "string",
          "name": "uri",
          "type": "string"
        }
      ],
      "name": "setTokenURI",
      "outputs": [],
      "stateMutability": "nonpayable",
      "type": "function"
    },
    {
      "inputs": [],
      "name": "tokenContract",
      "outputs": [
        {
          "internalType": "contract IERC1155",
          "name": "",
          "type": "address"
        }
      ],
      "stateMutability": "view",
      "type": "function"
    },
    {
      "inputs": [
        {
          "internalType": "uint256",
          "name": "tokenId",
          "type": "uint256"
        }
      ],
      "name": "tokenInStock",
      "outputs": [
        {
          "internalType": "uint256",
          "name": "totalAmount",
          "type": "uint256"
        }
      ],
      "stateMutability": "view",
      "type": "function"
    },
    {
      "inputs": [
        {
          "internalType": "uint256",
          "name": "",
          "type": "uint256"
        }
      ],
      "name": "tokenInfo",
      "outputs": [
        {
          "internalType": "enum Marketplace.Category",
          "name": "category",
          "type": "uint8"
        },
        {
          "internalType": "bool",
          "name": "isNFT",
          "type": "bool"
        }
      ],
      "stateMutability": "view",
      "type": "function"
    },
    {
      "inputs": [
        {
          "internalType": "uint256",
          "name": "",
          "type": "uint256"
        }
      ],
      "name": "tokenURIs",
      "outputs": [
        {
          "internalType": "string",
          "name": "",
          "type": "string"
        }
      ],
      "stateMutability": "view",
      "type": "function"
    },
    {
      "inputs": [
        {
          "internalType": "address",
          "name": "owner",
          "type": "address"
        },
        {
          "internalType": "uint256",
          "name": "",
          "type": "uint256"
        }
      ],
      "name": "tokensByOwner",
      "outputs": [
        {
          "internalType": "uint256",
          "name": "tokenIds",
          "type": "uint256"
        }
      ],
      "stateMutability": "view",
      "type": "function"
    },
    {
      "inputs": [
        {
          "internalType": "uint256[]",
          "name": "ids",
          "type": "uint256[]"
        },
        {
          "internalType": "uint256[]",
          "name": "amounts",
          "type": "uint256[]"
        }
      ],
      "name": "totalPrice",
      "outputs": [
        {
          "internalType": "uint256",
          "name": "price",
          "type": "uint256"
        }
      ],
      "stateMutability": "view",
      "type": "function"
    },
    {
      "inputs": [
        {
          "internalType": "address",
          "name": "newOwner",
          "type": "address"
        }
      ],
      "name": "transferOwnership",
      "outputs": [],
      "stateMutability": "nonpayable",
      "type": "function"
    },
    {
      "inputs": [
        {
          "internalType": "uint256",
          "name": "tokenId",
          "type": "uint256"
        },
        {
          "internalType": "uint256",
          "name": "newPrice",
          "type": "uint256"
        }
      ],
      "name": "updatePrice",
      "outputs": [],
      "stateMutability": "nonpayable",
      "type": "function"
    },
    {
      "inputs": [],
      "name": "usdtContract",
      "outputs": [
        {
          "internalType": "contract IERC20",
          "name": "",
          "type": "address"
        }
      ],
      "stateMutability": "view",
      "type": "function"
    }
  ],
  "bytecode": "0x60806040526003805534801561001457600080fd5b50604051617ab6380380617ab68339818101604052810190610036919061038e565b33610051674c392f4c6c03e37d60c01b61025f60201b60201c565b61006b67bdefbb702d0e527260c01b61025f60201b60201c565b336000806101000a81548173ffffffffffffffffffffffffffffffffffffffff021916908373ffffffffffffffffffffffffffffffffffffffff160217905550600073ffffffffffffffffffffffffffffffffffffffff168173ffffffffffffffffffffffffffffffffffffffff160361011d5760006040517f1e4fbdf700000000000000000000000000000000000000000000000000000000815260040161011491906103f0565b60405180910390fd5b61012c8161026260201b60201c565b5061014767c71fa3b5c28f985360c01b61032860201b60201c565b6101616790617bf340bd4e0960c01b61032860201b60201c565b82600460006101000a81548173ffffffffffffffffffffffffffffffffffffffff021916908373ffffffffffffffffffffffffffffffffffffffff1602179055506101bc676a615918b8a6807460c01b61032860201b60201c565b816000806101000a81548173ffffffffffffffffffffffffffffffffffffffff021916908373ffffffffffffffffffffffffffffffffffffffff1602179055506102166727e28aafeedbf20c60c01b61032860201b60201c565b80600560006101000a81548173ffffffffffffffffffffffffffffffffffffffff021916908373ffffffffffffffffffffffffffffffffffffffff16021790555050505061040b565b50565b6000600260009054906101000a900473ffffffffffffffffffffffffffffffffffffffff16905081600260006101000a81548173ffffffffffffffffffffffffffffffffffffffff021916908373ffffffffffffffffffffffffffffffffffffffff1602179055508173ffffffffffffffffffffffffffffffffffffffff168173ffffffffffffffffffffffffffffffffffffffff167f8be0079c531659141344cd1fd0a4f28419497f9722a3daafe3b4186f6b6457e060405160405180910390a35050565b50565b600080fd5b600073ffffffffffffffffffffffffffffffffffffffff82169050919050565b600061035b82610330565b9050919050565b61036b81610350565b811461037657600080fd5b50565b60008151905061038881610362565b92915050565b6000806000606084860312156103a7576103a661032b565b5b60006103b586828701610379565b93505060206103c686828701610379565b92505060406103d786828701610379565b9150509250925092565b6103ea81610350565b82525050565b600060208201905061040560008301846103e1565b92915050565b61769c8061041a6000396000f3fe6080604052600436106102045760003560e01c8063793cc5a111610118578063cc33c875116100a0578063e42e42be1161006f578063e42e42be146107b6578063f2fde38b146107df578063f851a44014610808578063fcbca45614610833578063fe575a871461085c57610204565b8063cc33c875146106d2578063dbac26e914610710578063ddca3f431461074d578063e149f0361461077857610204565b806391ba317a116100e757806391ba317a146105c75780639b97ef87146105f2578063b5c150d41461062f578063b997381c1461066c578063bd803b06146106a957610204565b8063793cc5a11461051f5780637c28f2a11461053657806382367b2d146105735780638da5cb5b1461059c57610204565b806343418ccf1161019b578063611509231161016a578063611509231461043a578063653db54a146104655780636c8b703f146104a2578063715018a6146104df57806373c90ec1146104f657610204565b806343418ccf14610394578063537df3b6146103bd57806355a373d6146103e657806356020d601461041157610204565b806331cd2252116101d757806331cd2252146102d557806331d14dbd1461031257806336cb4d961461033b57806340398d671461035757610204565b806303cf25d414610209578063162094c4146102465780631f283fc21461026f5780632475d065146102ac575b600080fd5b34801561021557600080fd5b50610230600480360381019061022b9190615ab9565b610899565b60405161023d9190615b01565b60405180910390f35b34801561025257600080fd5b5061026d60048036038101906102689190615c62565b6108f8565b005b34801561027b57600080fd5b5061029660048036038101906102919190615ab9565b6109d6565b6040516102a39190615b01565b60405180910390f35b3480156102b857600080fd5b506102d360048036038101906102ce9190615d86565b6109f6565b005b3480156102e157600080fd5b506102fc60048036038101906102f79190615e2d565b6114cf565b6040516103099190615eae565b60405180910390f35b34801561031e57600080fd5b5061033960048036038101906103349190615f1a565b61151d565b005b61035560048036038101906103509190615f6d565b6115fa565b005b34801561036357600080fd5b5061037e60048036038101906103799190616011565b6124a6565b60405161038b91906160fc565b60405180910390f35b3480156103a057600080fd5b506103bb60048036038101906103b69190615e2d565b612579565b005b3480156103c957600080fd5b506103e460048036038101906103df9190616011565b61271d565b005b3480156103f257600080fd5b506103fb61292d565b604051610408919061617d565b60405180910390f35b34801561041d57600080fd5b5061043860048036038101906104339190616198565b612953565b005b34801561044657600080fd5b5061044f612ccc565b60405161045c91906161f9565b60405180910390f35b34801561047157600080fd5b5061048c60048036038101906104879190616214565b612cf2565b6040516104999190616263565b60405180910390f35b3480156104ae57600080fd5b506104c960048036038101906104c49190615ab9565b612d23565b6040516104d691906162fd565b60405180910390f35b3480156104eb57600080fd5b506104f4612dc3565b005b34801561050257600080fd5b5061051d60048036038101906105189190615e2d565b612dd7565b005b34801561052b57600080fd5b506105346130e4565b005b34801561054257600080fd5b5061055d6004803603810190610558919061631f565b613630565b60405161056a91906160fc565b60405180910390f35b34801561057f57600080fd5b5061059a60048036038101906105959190615e2d565b613ada565b005b3480156105a857600080fd5b506105b1613d98565b6040516105be9190615eae565b60405180910390f35b3480156105d357600080fd5b506105dc613dc2565b6040516105e99190616263565b60405180910390f35b3480156105fe57600080fd5b5061061960048036038101906106149190615ab9565b613dc8565b6040516106269190616263565b60405180910390f35b34801561063b57600080fd5b5061065660048036038101906106519190615ab9565b613de0565b6040516106639190616263565b60405180910390f35b34801561067857600080fd5b50610693600480360381019061068e9190615f6d565b613e39565b6040516106a09190616263565b60405180910390f35b3480156106b557600080fd5b506106d060048036038101906106cb9190616198565b6148eb565b005b3480156106de57600080fd5b506106f960048036038101906106f49190615ab9565b614aad565b6040516107079291906163d6565b60405180910390f35b34801561071c57600080fd5b5061073760048036038101906107329190616011565b614aeb565b6040516107449190615b01565b60405180910390f35b34801561075957600080fd5b50610762614b0b565b60405161076f9190616263565b60405180910390f35b34801561078457600080fd5b5061079f600480360381019061079a9190616214565b614b11565b6040516107ad9291906163ff565b60405180910390f35b3480156107c257600080fd5b506107dd60048036038101906107d89190616198565b614b42565b005b3480156107eb57600080fd5b5061080660048036038101906108019190616011565b614d19565b005b34801561081457600080fd5b5061081d614d9f565b60405161082a9190615eae565b60405180910390f35b34801561083f57600080fd5b5061085a60048036038101906108559190616011565b614dc3565b005b34801561086857600080fd5b50610883600480360381019061087e9190616011565b614fd2565b6040516108909190615b01565b60405180910390f35b60006108af67398c299267c1065060c01b615064565b6108c367238477e5a4859ea960c01b615064565b6108d767fce11f8b8561613760c01b615064565b6000600a600084815260200190815260200160002080549050119050919050565b61090c67b40e72b8ad66060660c01b615064565b610914615067565b610928672739cd14c9c3a27060c01b615064565b61093c6730500813bc6d33d960c01b615064565b61095067f0a1bd9dde6da90760c01b615064565b80600b60008481526020019081526020016000209081610970919061662a565b506109856716bb1068ef4a6b2b60c01b615064565b61099967be9e6d4468c88f7260c01b615064565b7f496b10ce76f6fec5b06f5b35ff1292ff082ed36b04586ca00785bc2e444a83a682826040516109ca9291906166fc565b60405180910390a15050565b600d6020528060005260406000206000915054906101000a900460ff1681565b610a0a67fa6feec596018da660c01b615064565b610a1e6752e371e32e9f5e3d60c01b615064565b610a326743501dc5cc444b2860c01b615064565b6000339050610a4b674dcb0659c9d29cb860c01b615064565b610a5f67420a0848903347bd60c01b615064565b610a7367042558187bc90f1860c01b615064565b600460009054906101000a900473ffffffffffffffffffffffffffffffffffffffff1673ffffffffffffffffffffffffffffffffffffffff1663e985e9c582306040518363ffffffff1660e01b8152600401610ad092919061672c565b602060405180830381865afa158015610aed573d6000803e3d6000fd5b505050506040513d601f19601f82011682018060405250810190610b11919061676a565b610b50576040517f08c379a0000000000000000000000000000000000000000000000000000000008152600401610b47906167e3565b60405180910390fd5b610b646724f9c01f3e3cdb9960c01b615064565b610b78670c561339de01dedd60c01b615064565b610b8c67a16e821b9a54603a60c01b615064565b610ba067238e6cf96902329360c01b615064565b600160003373ffffffffffffffffffffffffffffffffffffffff1673ffffffffffffffffffffffffffffffffffffffff16815260200190815260200160002060009054906101000a900460ff1615610c2d576040517f08c379a0000000000000000000000000000000000000000000000000000000008152600401610c249061684f565b60405180910390fd5b610c4167a17570cb3004cfb560c01b615064565b610c556720e2fe9250bc3d5960c01b615064565b610c6967cfe8fd19fbd8a91960c01b615064565b600084519050610c83672260427855aa4d9060c01b615064565b610c976781ed441861fc441b60c01b615064565b610cab6773925671d98793d460c01b615064565b835181148015610cbb5750825181145b610cfa576040517f08c379a0000000000000000000000000000000000000000000000000000000008152600401610cf1906168bb565b60405180910390fd5b610d0e67e95644e357ea29bc60c01b615064565b610d2267926e070cc152763b60c01b615064565b610d3667f8b066012d9bce7160c01b615064565b60005b8181101561144d57610d556743babcd41140f92160c01b615064565b610d69672bd56949ce8b0d6560c01b615064565b6000868281518110610d7e57610d7d6168db565b5b60200260200101519050610d9c67b5be9998ff144e8c60c01b615064565b610db06777701c3b3c8cf27a60c01b615064565b6000600460009054906101000a900473ffffffffffffffffffffffffffffffffffffffff1673ffffffffffffffffffffffffffffffffffffffff1662fdd58e86846040518363ffffffff1660e01b8152600401610e0e92919061690a565b602060405180830381865afa158015610e2b573d6000803e3d6000fd5b505050506040513d601f19601f82011682018060405250810190610e4f9190616948565b9050610e6567a829134a92aa71f860c01b615064565b610e79678dd9ba97b846ca0460c01b615064565b6000878481518110610e8e57610e8d6168db565b5b60200260200101519050610eac6765d2f44de66b035b60c01b615064565b610ec0674cf5115464e4c28160c01b615064565b610ed4677f3dc2763d78241660c01b615064565b80821015610f17576040517f08c379a0000000000000000000000000000000000000000000000000000000008152600401610f0e906169c1565b60405180910390fd5b610f2b67ae9c273a300c0b3760c01b615064565b610f3f67608b3441a932db4b60c01b615064565b610f5367dd663dc49d28ab2060c01b615064565b6000878581518110610f6857610f676168db565b5b60200260200101519050610f8667ac88fa26fbc9e3ec60c01b615064565b610f9a676cbd1bc139b06c5560c01b615064565b610fae67a4e7bd456b721f3d60c01b615064565b60008111610ff1576040517f08c379a0000000000000000000000000000000000000000000000000000000008152600401610fe890616a2d565b60405180910390fd5b611005671eb55ed1b16fc8eb60c01b615064565b6110196716fb6ca0b98dc4fa60c01b615064565b61102d67afbd0cce4dde556f60c01b615064565b60065484111561106b5761104b675cde926c056aea5860c01b615064565b61105f67018978860a00f59260c01b615064565b83600681905550611080565b61107f6763dd0bc563bf00a560c01b615064565b5b61109467f47fb9141c295eaa60c01b615064565b6110a867468348c800a3d06860c01b615064565b600d600085815260200190815260200160002060009054906101000a900460ff16611185576110e167c04d589db287e3c860c01b615064565b6110f5672e90b4bd4000fe1860c01b615064565b6001600d600086815260200190815260200160002060006101000a81548160ff0219169083151502179055506111356725f6fbac6614a0bc60c01b615064565b61114967835062e1ad98d47c60c01b615064565b7ffd278305b79b35bfaa0e5467bb0f6563ecb9dc4c52cd6fb07affaba063e6a745846040516111789190616263565b60405180910390a161119a565b61119967666b9dd6149fc68460c01b615064565b5b6111ae672fdf7889a135b39760c01b615064565b816009600086815260200190815260200160002060008282546111d19190616a7c565b925050819055506111ec675bdb7ebf075e732160c01b615064565b61120067409d53b60bc435ec60c01b615064565b6000600760008973ffffffffffffffffffffffffffffffffffffffff1673ffffffffffffffffffffffffffffffffffffffff1681526020019081526020016000206000868152602001908152602001600020905061126867bed0fafa9347f8c360c01b615064565b61127c67854053d90da32f4460c01b615064565b60008160010154148015611294575060008160000154145b156113dc576112ad67088e70e10193a52f60c01b615064565b6112c1671bb2087c7269554d60c01b615064565b6112d567594da79b8e4bb33e60c01b615064565b600860008973ffffffffffffffffffffffffffffffffffffffff1673ffffffffffffffffffffffffffffffffffffffff16815260200190815260200160002085908060018154018082558091505060019003906000526020600020016000909190919091505561134f671d10dbe66eac29e460c01b615064565b61136367571a21623c44349560c01b615064565b600a6000868152602001908152602001600020889080600181540180825580915050600190039060005260206000200160009091909190916101000a81548173ffffffffffffffffffffffffffffffffffffffff021916908373ffffffffffffffffffffffffffffffffffffffff1602179055506113f1565b6113f06740fbd54dbd34160a60c01b615064565b5b611405678245c10b9e1d436f60c01b615064565b81816001018190555061142267becf70f0b7ff5a0d60c01b615064565b828160000160008282546114369190616a7c565b925050819055505050505050806001019050610d39565b5061146267e2e30f461e2f25e860c01b615064565b611476677b51290eb6434ac660c01b615064565b3373ffffffffffffffffffffffffffffffffffffffff167fc77638da240698b2771a34ab51074f7d8d850f1617ca3ac9e747ac3f24c84f818686866040516114c093929190616ab0565b60405180910390a25050505050565b600a60205281600052604060002081815481106114eb57600080fd5b906000526020600020016000915091509054906101000a900473ffffffffffffffffffffffffffffffffffffffff1681565b6115316741533f8f3688597360c01b615064565b611539615067565b61154d6797ce6b7f40ff127860c01b615064565b61156167a2cf5d8700f968d860c01b615064565b61157567eb3a8191c29433a660c01b615064565b81600c600085815260200190815260200160002060000160006101000a81548160ff021916908360048111156115ae576115ad61635f565b5b02179055506115c7670339c3219321324260c01b615064565b80600c600085815260200190815260200160002060000160016101000a81548160ff021916908315150217905550505050565b61160e6775afcb294396224c60c01b615064565b6116226768ee1d873a33388f60c01b615064565b61163667a378315c7eed398d60c01b615064565b600061164c673239834b7a33ec8360c01b615064565b61166067ca99888c73c0054f60c01b615064565b60008351905061167a67f067cad8aa3da39960c01b615064565b61168e67462610edac1f590160c01b615064565b6116a2676fd67a1e9e38634f60c01b615064565b825181146116e5576040517f08c379a00000000000000000000000000000000000000000000000000000000081526004016116dc90616b48565b60405180910390fd5b6116f967f91f2cc635c239da60c01b615064565b61170d6742d524617292172460c01b615064565b611721674edf6bb7ddb4588e60c01b615064565b611735676edc523fdb26079e60c01b615064565b60003414611778576040517f08c379a000000000000000000000000000000000000000000000000000000000815260040161176f90616bb4565b60405180910390fd5b61178c678fccd37b017ff89260c01b615064565b6117a067cfa9fb8dac95427e60c01b615064565b6117b467968b808fce8d00bf60c01b615064565b60005b81811015612427576117d36756a49225d3f99a9860c01b615064565b6117e767956aff31957f48b060c01b615064565b60008582815181106117fc576117fb6168db565b5b6020026020010151905061181a671482df28e8a96c4860c01b615064565b61182e67c4785ae28d9c592160c01b615064565b6000858381518110611843576118426168db565b5b6020026020010151905061186167bb8a8958dea35b4e60c01b615064565b6118756747c96834e786542460c01b615064565b61188967c9cf0e2604bba46060c01b615064565b600081116118cc576040517f08c379a00000000000000000000000000000000000000000000000000000000081526004016118c390616c46565b60405180910390fd5b6118e067d66579b3635bf72460c01b615064565b6118f4679be86c49f6af99b860c01b615064565b611908672cc4d9a12784b39b60c01b615064565b61191c67cb0959189af8947560c01b615064565b8061192683613de0565b1015611967576040517f08c379a000000000000000000000000000000000000000000000000000000000815260040161195e90616cb2565b60405180910390fd5b61197b67820620b110b449f360c01b615064565b61198f67aa46bd930c8c69ae60c01b615064565b6119a3674778ec8741a5fffc60c01b615064565b60006119b967b7cb3c0e7861e6a060c01b615064565b6119cd6790a36fa8cc52b6f360c01b615064565b60006119e367edc54105da4d4b2e60c01b615064565b6119f76773c360a470e2e6f460c01b615064565b5b8282101561241857611a1467bd90003199d33b6060c01b615064565b611a2867ac804154ec43326960c01b615064565b611a3c6767e6a9641755a45460c01b615064565b600a6000858152602001908152602001600020805490508110611a94576040517f08c379a0000000000000000000000000000000000000000000000000000000008152600401611a8b90616d1e565b60405180910390fd5b611aa8677fb5c1f0065cc7ee60c01b615064565b611abc67c88266f42d4ffe5e60c01b615064565b611ad0672b17057c9352439e60c01b615064565b6000600a60008681526020019081526020016000208281548110611af757611af66168db565b5b9060005260206000200160009054906101000a900473ffffffffffffffffffffffffffffffffffffffff169050611b3867276118b1283281f960c01b615064565b611b4c67795f1a19ce733a1260c01b615064565b6000600760008373ffffffffffffffffffffffffffffffffffffffff1673ffffffffffffffffffffffffffffffffffffffff16815260200190815260200160002060008781526020019081526020016000209050611bb467bae7c071d973cfcc60c01b615064565b611bc8673fa96c4d7a48048160c01b615064565b600081600101549050611be567535193cd86a41de960c01b615064565b611bf96778d835806e612c5460c01b615064565b60008587611c079190616d3e565b9050611c1d67d62bb215c4fd30b460c01b615064565b611c3167a4ee2a062007313860c01b615064565b6000611c418460000154836150ee565b9050611c5767194020761f58e7dc60c01b615064565b611c6b67b2cac867a477775a60c01b615064565b611c7f67bc200d6bdfbfece860c01b615064565b600760008673ffffffffffffffffffffffffffffffffffffffff1673ffffffffffffffffffffffffffffffffffffffff16815260200190815260200160002060008a8152602001908152602001600020600101548314611d14576040517f08c379a0000000000000000000000000000000000000000000000000000000008152600401611d0b90616dbe565b60405180910390fd5b611d286744866b9c188c927060c01b615064565b611d3c677aada85139b24ac760c01b615064565b611d50676a78f072ea4a5ac460c01b615064565b60008382611d5e9190616dde565b9050611d74673663cd3f986fb95360c01b615064565b611d886756a3363700f2df2660c01b615064565b6000606460035483611d9a9190616dde565b611da49190616e4f565b9050611dba67883fcbd6bd22fee560c01b615064565b611dce67ddf4f79c9fb2662060c01b615064565b611de2674874a77599fb9b5c60c01b615064565b8082611dee9190616a7c565b600560009054906101000a900473ffffffffffffffffffffffffffffffffffffffff1673ffffffffffffffffffffffffffffffffffffffff166370a08231336040518263ffffffff1660e01b8152600401611e499190615eae565b602060405180830381865afa158015611e66573d6000803e3d6000fd5b505050506040513d601f19601f82011682018060405250810190611e8a9190616948565b1015611ecb576040517f08c379a0000000000000000000000000000000000000000000000000000000008152600401611ec290616ecc565b60405180910390fd5b611edf67a51e946b3e6af00d60c01b615064565b611ef3670b304ab59a844a5460c01b615064565b611f07675c39f403335f0a7460c01b615064565b611f1b67f3331c781249465260c01b615064565b8082611f279190616a7c565b600560009054906101000a900473ffffffffffffffffffffffffffffffffffffffff1673ffffffffffffffffffffffffffffffffffffffff1663dd62ed3e33306040518363ffffffff1660e01b8152600401611f8492919061672c565b602060405180830381865afa158015611fa1573d6000803e3d6000fd5b505050506040513d601f19601f82011682018060405250810190611fc59190616948565b1015612006576040517f08c379a0000000000000000000000000000000000000000000000000000000008152600401611ffd90616f38565b60405180910390fd5b61201a676cba2c53059cb48760c01b615064565b61202e673b104ffca251b88d60c01b615064565b61204267a00b4b8ac62449f060c01b615064565b600560009054906101000a900473ffffffffffffffffffffffffffffffffffffffff1673ffffffffffffffffffffffffffffffffffffffff166323b872dd3330848661208e9190616a7c565b6040518463ffffffff1660e01b81526004016120ac93929190616f58565b6020604051808303816000875af11580156120cb573d6000803e3d6000fd5b505050506040513d601f19601f820116820180604052508101906120ef919061676a565b5061210467c96344250867a90d60c01b615064565b818e6121109190616a7c565b9d5061212667f6cb9b685ceef1a660c01b615064565b82896121329190616a7c565b98506121486729752834fc2072f960c01b615064565b8286600001600082825461215c9190616d3e565b92505081905550612177679fbc19bb3bfb621960c01b615064565b82600960008d8152602001908152602001600020600082825461219a9190616d3e565b925050819055506121b567b8274bd6d51fa77460c01b615064565b6121c9679dced06285ed10b860c01b615064565b600460009054906101000a900473ffffffffffffffffffffffffffffffffffffffff1673ffffffffffffffffffffffffffffffffffffffff1663f242432a88338e876040518563ffffffff1660e01b815260040161222a9493929190616fc6565b600060405180830381600087803b15801561224457600080fd5b505af1158015612258573d6000803e3d6000fd5b505050506122706761e1be2c7e6280d460c01b615064565b61228467ae79a58d956f7be560c01b615064565b61228f87838361517a565b6122a36744107ed3aba4a57460c01b615064565b6122b76728ea7ddb37686a2360c01b615064565b6000866000015403612372576122d767e1e902d0bf8d754960c01b615064565b6122eb67b77f5b2708162bd960c01b615064565b6122ff674d0d60b9d081669860c01b615064565b6123098b886148eb565b61231d675fb33c66d8085cc960c01b615064565b612331675d05adb502f6874f60c01b615064565b61233b8b88612953565b61234f67c1d28cb58fbf169660c01b615064565b61236367172009e44c1578c660c01b615064565b61236d8b88614b42565b6123a9565b6123866759c103d4db6fa04e60c01b615064565b61239a67d23c4685958dcbe060c01b615064565b87806123a59061701e565b9850505b6123bd67c250e77eaa970d3660c01b615064565b6123d1674924372ec5547eae60c01b615064565b8989106123f8576123ec671b37538d4e3978d160c01b615064565b50505050505050612418565b61240c6717caf99b4175e91360c01b615064565b505050505050506119f8565b505050508060010190506117b7565b5061243c67d0d43f766bd8fc5760c01b615064565b6124506760bac8468dd3dd0b60c01b615064565b3373ffffffffffffffffffffffffffffffffffffffff167f0918693ca44cd412ae832f7e3a32773451af3cd244333501a3e25222b07b68858585604051612498929190617066565b60405180910390a250505050565b60606124bc67af6eab73be26840c60c01b615064565b6124d0679dd811535c5eafc360c01b615064565b6124e4678d54beb5d492bb3860c01b615064565b600860008373ffffffffffffffffffffffffffffffffffffffff1673ffffffffffffffffffffffffffffffffffffffff16815260200190815260200160002080548060200260200160405190810160405280929190818152602001828054801561256d57602002820191906000526020600020905b815481526020019060010190808311612559575b50505050509050919050565b61258d67b4e0f153896bef7f60c01b615064565b6125a167a012fcecd039a8d960c01b615064565b6125b567526fe4c6404f642160c01b615064565b6125c967478162eb5769888660c01b615064565b806009600084815260200190815260200160002054101561261f576040517f08c379a0000000000000000000000000000000000000000000000000000000008152600401612616906170e9565b60405180910390fd5b61263367cebaf95c534c4b8460c01b615064565b612647673466bd29970d0a2e60c01b615064565b8060096000848152602001908152602001600020600082825461266a9190616d3e565b9250508190555061268567543e54b217be057f60c01b615064565b61269967940a8e6fa3669a0360c01b615064565b6000600960008481526020019081526020016000205403612704576126c8671a79bf8a1284746160c01b615064565b6126dc67c3281439d22b761b60c01b615064565b600d600083815260200190815260200160002060006101000a81549060ff0219169055612719565b61271867831515cbcdea7b9d60c01b615064565b5b5050565b61273167b905b1adbcb3665c60c01b615538565b6127456762a87dd84947187660c01b615538565b61275967bdc651370e1895f160c01b615538565b61276d67431636f03f3e702860c01b615538565b61278167858e65d19b3f371360c01b615538565b60008054906101000a900473ffffffffffffffffffffffffffffffffffffffff1673ffffffffffffffffffffffffffffffffffffffff163373ffffffffffffffffffffffffffffffffffffffff161461280f576040517f08c379a00000000000000000000000000000000000000000000000000000000081526004016128069061717b565b60405180910390fd5b61282367d2dd86cf4fb0be0160c01b615538565b61283767ec43525350fb6f3360c01b615538565b61284b67acf19a2676e5042d60c01b615538565b61285f6778cf3073a257613360c01b615538565b61287367229f8de2e366dceb60c01b615538565b6000600160008373ffffffffffffffffffffffffffffffffffffffff1673ffffffffffffffffffffffffffffffffffffffff16815260200190815260200160002060006101000a81548160ff0219169083151502179055506128df67775d0621f989807960c01b615538565b6128f3675322319952021e9f60c01b615538565b7f35bef39900b57de8fa0e0c77219a7f3d0f1e79ca057d456e02a590e8631413cf816040516129229190615eae565b60405180910390a150565b600460009054906101000a900473ffffffffffffffffffffffffffffffffffffffff1681565b61296767a1b83740978d088360c01b615064565b61297b67c4c511562dd05a4460c01b615064565b61298f67a486a8a2450663dc60c01b615064565b600061299b828461553b565b90506129b167d0471f84a60939ec60c01b615064565b6129c567451a675f4b3049ad60c01b615064565b6129d967f5db23c7bf29a6ed60c01b615064565b600860008373ffffffffffffffffffffffffffffffffffffffff1673ffffffffffffffffffffffffffffffffffffffff168152602001908152602001600020805490508110612a5d576040517f08c379a0000000000000000000000000000000000000000000000000000000008152600401612a54906171e7565b60405180910390fd5b612a71679c40aa2ede9f859360c01b615064565b612a8567eda1b81cfdb7980f60c01b615064565b612a9967eeb052be7c29e45260c01b615064565b6001600860008473ffffffffffffffffffffffffffffffffffffffff1673ffffffffffffffffffffffffffffffffffffffff16815260200190815260200160002080549050612ae89190616d3e565b811015612c2557612b0367c7803a2820a63c3a60c01b615064565b612b1767e074dc1f6ec52afd60c01b615064565b600860008373ffffffffffffffffffffffffffffffffffffffff1673ffffffffffffffffffffffffffffffffffffffff1681526020019081526020016000206001600860008573ffffffffffffffffffffffffffffffffffffffff1673ffffffffffffffffffffffffffffffffffffffff16815260200190815260200160002080549050612ba59190616d3e565b81548110612bb657612bb56168db565b5b9060005260206000200154600860008473ffffffffffffffffffffffffffffffffffffffff1673ffffffffffffffffffffffffffffffffffffffff1681526020019081526020016000208281548110612c1257612c116168db565b5b9060005260206000200181905550612c3a565b612c396726a52f06fde6771560c01b615064565b5b612c4e672a0252b256c1eca760c01b615064565b612c62678ceeeec8d64c774d60c01b615064565b600860008373ffffffffffffffffffffffffffffffffffffffff1673ffffffffffffffffffffffffffffffffffffffff168152602001908152602001600020805480612cb157612cb0617207565b5b60019003818190600052602060002001600090559055505050565b600560009054906101000a900473ffffffffffffffffffffffffffffffffffffffff1681565b60086020528160005260406000208181548110612d0e57600080fd5b90600052602060002001600091509150505481565b600b6020528060005260406000206000915090508054612d4290616457565b80601f0160208091040260200160405190810160405280929190818152602001828054612d6e90616457565b8015612dbb5780601f10612d9057610100808354040283529160200191612dbb565b820191906000526020600020905b815481529060010190602001808311612d9e57829003601f168201915b505050505081565b612dcb615067565b612dd5600061574c565b565b612deb676ce393a385dd712d60c01b615064565b612dff6767dfc365f2e03a9760c01b615064565b612e13670a66136a706ec9e960c01b615064565b612e27675ca579d5b86c043460c01b615064565b600160003373ffffffffffffffffffffffffffffffffffffffff1673ffffffffffffffffffffffffffffffffffffffff16815260200190815260200160002060009054906101000a900460ff1615612eb4576040517f08c379a0000000000000000000000000000000000000000000000000000000008152600401612eab9061684f565b60405180910390fd5b612ec867a6d3f9f63f12c0d960c01b615064565b612edc672e4ba06d8658b6e660c01b615064565b612ef0678f51c95e9532d84660c01b615064565b612f0366465804d432522e60c01b615064565b80600760003373ffffffffffffffffffffffffffffffffffffffff1673ffffffffffffffffffffffffffffffffffffffff1681526020019081526020016000206000848152602001908152602001600020600001541015612f99576040517f08c379a0000000000000000000000000000000000000000000000000000000008152600401612f9090617282565b60405180910390fd5b612fad67cc4128995a99a3a060c01b615064565b612fc16722ceaeaff0b5850360c01b615064565b80600760003373ffffffffffffffffffffffffffffffffffffffff1673ffffffffffffffffffffffffffffffffffffffff168152602001908152602001600020600084815260200190815260200160002060000160008282546130249190616d3e565b9250508190555061303f67729978a77be7678660c01b615064565b806009600084815260200190815260200160002060008282546130629190616d3e565b9250508190555061307d67f6acd3731c17419260c01b615064565b613091671e7b742b344ab49860c01b615064565b813373ffffffffffffffffffffffffffffffffffffffff167f54a640d6084ec84914977a48723463fd2741e25dfcd6e186a56ff0d2dc753666836040516130d89190616263565b60405180910390a35050565b6130f8670131ba63c688e7b460c01b615064565b61310c67267e7cef0c87538160c01b615064565b61312067cc20675aaf74bd6860c01b615064565b613134673e0590e37a179a5560c01b615064565b600160003373ffffffffffffffffffffffffffffffffffffffff1673ffffffffffffffffffffffffffffffffffffffff16815260200190815260200160002060009054906101000a900460ff16156131c1576040517f08c379a00000000000000000000000000000000000000000000000000000000081526004016131b89061684f565b60405180910390fd5b6131d567c2d8f3c09b6d936d60c01b615064565b6131e967fccf65a97fa1d23560c01b615064565b6131fd67e33d844dfbc5488e60c01b615064565b60003390506132166767eb21342a59385060c01b615064565b61322a673c3a876186e6573d60c01b615064565b60006001600860008473ffffffffffffffffffffffffffffffffffffffff1673ffffffffffffffffffffffffffffffffffffffff1681526020019081526020016000208054905061327b91906172ac565b90505b600081126135625761329a6746863ee011a418a860c01b615064565b6132ae6752466d1d2da33ffd60c01b615064565b6000600860008473ffffffffffffffffffffffffffffffffffffffff1673ffffffffffffffffffffffffffffffffffffffff1681526020019081526020016000208281548110613301576133006168db565b5b9060005260206000200154905061332267c98cea80abca2cf960c01b615064565b613336675e642bd0810637e260c01b615064565b6000600760008573ffffffffffffffffffffffffffffffffffffffff1673ffffffffffffffffffffffffffffffffffffffff1681526020019081526020016000206000838152602001908152602001600020600001541115613507576133a667b7d2697bee891a1f60c01b615064565b6133ba67c2c1c3098c863b2160c01b615064565b6133ce67ed1c09d46426d38a60c01b615064565b6000600760008573ffffffffffffffffffffffffffffffffffffffff1673ffffffffffffffffffffffffffffffffffffffff168152602001908152602001600020600083815260200190815260200160002060000154905061343a679917c480e050c64860c01b615064565b61344e672eeabd5e61d3568260c01b615064565b6134588282612579565b61346c678524145d99e137be60c01b615064565b600760008573ffffffffffffffffffffffffffffffffffffffff1673ffffffffffffffffffffffffffffffffffffffff1681526020019081526020016000206000838152602001908152602001600020600080820160009055600182016000905550506134e367fab0b17f91332ee660c01b615064565b6134f767e40bca0afce1c8a760c01b615064565b61350182856148eb565b5061351c565b61351b672e65e3380ca6618660c01b615064565b5b61353067c5db28dfa38e064b60c01b615064565b61354467569f3bb3639454d260c01b615064565b61354e8184612953565b50808061355a906172ef565b91505061327e565b50613577677e1dff3afbab301560c01b615064565b600860008273ffffffffffffffffffffffffffffffffffffffff1673ffffffffffffffffffffffffffffffffffffffff16815260200190815260200160002060006135c29190615a31565b6135d6672d8edfea0411d3a360c01b615064565b6135ea67e4e5fd8107ac1e1360c01b615064565b8073ffffffffffffffffffffffffffffffffffffffff167fdc57b5dba6e45858d2a4a202176c8963eea39a04084ac33f52875f26f25e7d8d60405160405180910390a250565b606061364667128dac9f31262aa160c01b615064565b61365a672ce2faacfb72f98560c01b615064565b61366e67a38a40aff7151fcc60c01b615064565b6000600160065461367f9190616a7c565b67ffffffffffffffff81111561369857613697615b37565b5b6040519080825280602002602001820160405280156136c65781602001602082028036833780820191505090505b5090506136dd6754a72bd25a5df36760c01b615064565b6136f167b6b2fce1da4bd73260c01b615064565b60006137076720a5dbab1ed3d77760c01b615064565b61371b672eeb3a9b7aa3e00660c01b615064565b60005b60065481116139a15761373b67ccd5fd4dd656830660c01b615064565b61374f67727b49ffe358481360c01b615064565b600d600082815260200190815260200160002060009054906101000a900460ff1615613979576137896789df2fe0386b591c60c01b615064565b61379d6712f65baf2bc29deb60c01b615064565b6137b167118b78bf1f13046b60c01b615064565b6000600c600083815260200190815260200160002090506137dc67ec4b3be97dc3184760c01b615064565b6137f067a42b8deb94c1d5c460c01b615064565b600060048111156138045761380361635f565b5b8760048111156138175761381661635f565b5b148015613834575061383367a53dce1926cce20760c01b615812565b5b8061388f575086600481111561384d5761384c61635f565b5b8160000160009054906101000a900460ff1660048111156138715761387061635f565b5b14801561388e575061388d67e43e2bdce001ce2b60c01b615812565b5b5b80156138ea5750851580156138b457506138b36736a05f071a61630360c01b615812565b5b806138e957508060000160019054906101000a900460ff1680156138e857506138e7676b01d4cd4fb754cf60c01b615812565b5b5b5b1561395e5761390367220839291a91b11660c01b615064565b61391767660597d8ae1775d560c01b615064565b8184848151811061392b5761392a6168db565b5b60200260200101818152505061394b67a22242c2dafadfea60c01b615064565b82806139569061701e565b935050613973565b61397267aa2157e7de063fe060c01b615064565b5b5061398e565b61398d67c29277104d41b2e660c01b615064565b5b80806139999061701e565b91505061371e565b506139b667150216f59e17353b60c01b615064565b6139ca676a6cc49353f8960d60c01b615064565b60008167ffffffffffffffff8111156139e6576139e5615b37565b5b604051908082528060200260200182016040528015613a145781602001602082028036833780820191505090505b509050613a2b674becea736ea3ecbb60c01b615064565b613a3f67a57fd41297068af460c01b615064565b60005b82811015613aa557613a5e6728170b4f3da78b3060c01b615064565b838181518110613a7157613a706168db565b5b6020026020010151828281518110613a8c57613a8b6168db565b5b6020026020010181815250508080600101915050613a42565b50613aba67b36fc6a50a6182c360c01b615064565b613ace675f181587f4c9d75560c01b615064565b80935050505092915050565b613aee67176327c34a48181d60c01b615064565b613b0267add30f586228232960c01b615064565b613b16678ffb8a1290adc63060c01b615064565b613b2a678ce60dbca8e6024e60c01b615064565b600160003373ffffffffffffffffffffffffffffffffffffffff1673ffffffffffffffffffffffffffffffffffffffff16815260200190815260200160002060009054906101000a900460ff1615613bb7576040517f08c379a0000000000000000000000000000000000000000000000000000000008152600401613bae9061684f565b60405180910390fd5b613bcb6733ee8f95c1ae02a460c01b615064565b613bdf677d0b21fb9db93b7960c01b615064565b613bf367ca4bf94f1a57db3360c01b615064565b613c0767e4dadc80d6478f8560c01b615064565b6000600760003373ffffffffffffffffffffffffffffffffffffffff1673ffffffffffffffffffffffffffffffffffffffff16815260200190815260200160002060008481526020019081526020016000206001015411613c9d576040517f08c379a0000000000000000000000000000000000000000000000000000000008152600401613c9490617383565b60405180910390fd5b613cb167b57b2b05d94db9be60c01b615064565b613cc567e08be5093b54f59a60c01b615064565b80600760003373ffffffffffffffffffffffffffffffffffffffff1673ffffffffffffffffffffffffffffffffffffffff168152602001908152602001600020600084815260200190815260200160002060010181905550613d3167be14700a89c5e14960c01b615064565b613d4567924f9885d0b9515360c01b615064565b813373ffffffffffffffffffffffffffffffffffffffff167fb556fac599c3c70efb9ab1fa725ecace6c81cc48d1455f886607def065f3e0c083604051613d8c9190616263565b60405180910390a35050565b6000600260009054906101000a900473ffffffffffffffffffffffffffffffffffffffff16905090565b60065481565b60096020528060005260406000206000915090505481565b6000613df6677708608bde1f28e460c01b615064565b613e0a674397dda96b987d8b60c01b615064565b613e1e67bc0747a15476ae3c60c01b615064565b60096000838152602001908152602001600020549050919050565b6000613e4f673a07c1d4c3425af160c01b615064565b613e6367faa4be457b886e7660c01b615064565b613e77670ff17a7e540fc29b60c01b615064565b600083519050613e91671053adc475f2703060c01b615064565b613ea567be92e15c3224ced960c01b615064565b613eb9671007fb2c99b5b76b60c01b615064565b82518114613efc576040517f08c379a0000000000000000000000000000000000000000000000000000000008152600401613ef3906173ef565b60405180910390fd5b613f1067e8ece25b13d3e13f60c01b615064565b613f24677d807797a614663060c01b615064565b60009150613f3c676a7ccdfdd21735a460c01b615064565b613f506726a0d630f542c70960c01b615064565b60005b818110156148bb57613f6f678e015f9e6dce64f560c01b615064565b613f8367132d937ad6cf043b60c01b615064565b6000858281518110613f9857613f976168db565b5b60200260200101519050613fb6678eb62636f4a7b82160c01b615064565b613fca67d9426867e1cd232560c01b615064565b6000858381518110613fdf57613fde6168db565b5b60200260200101519050613ffd67db7d5f0bb751d82060c01b615064565b61401167d63fb757a21a5c3760c01b615064565b6140256785ee1074de52814b60c01b615064565b60008111614068576040517f08c379a000000000000000000000000000000000000000000000000000000000815260040161405f90616c46565b60405180910390fd5b61407c67faac0df65ee5061d60c01b615064565b614090675843c41b75f98bbf60c01b615064565b6140a467ec1a4dfaacbcd56760c01b615064565b6140b86761f1f9f419eea9cc60c01b615064565b806140c283613de0565b1015614103576040517f08c379a00000000000000000000000000000000000000000000000000000000081526004016140fa90616cb2565b60405180910390fd5b6141176738d031166ca906dd60c01b615064565b61412b678ea216134d99cc5c60c01b615064565b61413f679067848d1c45a44f60c01b615064565b6000614155674ac7306faf96011d60c01b615064565b61416967ee67e75e330d8add60c01b615064565b600061417f673863241babb6dc0960c01b615064565b614193676afeb88d02192ea060c01b615064565b6000600a60008681526020019081526020016000208054905067ffffffffffffffff8111156141c5576141c4615b37565b5b6040519080825280602002602001820160405280156141f35781602001602082028036833780820191505090505b50905061420a67bcfe1864936690fc60c01b615064565b61421e67359352589f01573660c01b615064565b6000600a60008781526020019081526020016000208054905067ffffffffffffffff8111156142505761424f615b37565b5b60405190808252806020026020018201604052801561427e5781602001602082028036833780820191505090505b5090506142956730d479e9a649423260c01b615064565b6142a96719bc280dd2eb165160c01b615064565b5b600a600087815260200190815260200160002080549050831015614457576142dc67099595f15450092f60c01b615064565b6142f067c30d390a2324e5e160c01b615064565b6000600a60008881526020019081526020016000208481548110614317576143166168db565b5b9060005260206000200160009054906101000a900473ffffffffffffffffffffffffffffffffffffffff169050614358678c4360a08a0e658560c01b615064565b61436c67628da90d4939731860c01b615064565b6000600760008373ffffffffffffffffffffffffffffffffffffffff1673ffffffffffffffffffffffffffffffffffffffff168152602001908152602001600020600089815260200190815260200160002090506143d46709320cc190ec4add60c01b615064565b80600101548486815181106143ec576143eb6168db565b5b60200260200101818152505061440c67d2aa0acfd49b500b60c01b615064565b8060000154838681518110614424576144236168db565b5b602002602001018181525050614444672f17b42eab657e2560c01b615064565b8461444e9061701e565b945050506142aa565b61446b674077a5bd3816e8dc60c01b615064565b61447f674c4ec58c5320425a60c01b615064565b60005b82518110156146875761449f677fcf5a730ca04cd260c01b615064565b6144b3677b33cbb95e6c229260c01b615064565b60006001826144c29190616a7c565b90505b835181101561467b576144e2671e1df20803fc6d3c60c01b615064565b6144f667f27156594bea54ef60c01b615064565b838181518110614509576145086168db565b5b6020026020010151848381518110614524576145236168db565b5b6020026020010151111561465b57614546677f04536f0ba51b6e60c01b615064565b61455a67de8e07774396308a60c01b615064565b83818151811061456d5761456c6168db565b5b6020026020010151848381518110614588576145876168db565b5b60200260200101518584815181106145a3576145a26168db565b5b602002602001018684815181106145bd576145bc6168db565b5b60200260200101828152508281525050506145e267b53efb21b8b859fd60c01b615064565b8281815181106145f5576145f46168db565b5b60200260200101518383815181106146105761460f6168db565b5b602002602001015184848151811061462b5761462a6168db565b5b60200260200101858481518110614645576146446168db565b5b6020026020010182815250828152505050614670565b61466f677038d03e0963a0c160c01b615064565b5b8060010190506144c5565b50806001019050614482565b5061469c67ce42c4221582aaec60c01b615064565b600092506146b467226b2f39ee7d7c6d60c01b615064565b6146c867fd7bb6e1993da79160c01b615064565b5b848410156148aa576146e5678097555f1e1e016360c01b615064565b6146f967cad81e248890fbae60c01b615064565b61470d67f6c5969802cbfee160c01b615064565b81518310614750576040517f08c379a00000000000000000000000000000000000000000000000000000000081526004016147479061745b565b60405180910390fd5b6147646785a286d2e4b34a9e60c01b615064565b61477867d3724e2ea29cb73d60c01b615064565b61478c674ab1f2c41497917060c01b615064565b60008284815181106147a1576147a06168db565b5b602002602001015190506147bf679844be2581f8980160c01b615064565b6147d3674b8ace0c5010bce260c01b615064565b60008285815181106147e8576147e76168db565b5b60200260200101519050614806679753fecee433ed0f60c01b615064565b61481a677eaacb75e51968c360c01b615064565b6000614831878961482b9190616d3e565b836150ee565b905061484767a6d69ef250a710a160c01b615064565b82816148539190616dde565b8c61485e9190616a7c565b9b506148746778776273aadd7d4860c01b615064565b80876148809190616a7c565b9650614896672e2defd48d47a28a60c01b615064565b856148a09061701e565b95505050506146c9565b505050505050806001019050613f53565b506148d067c92e078cee68278460c01b615064565b6148e46724141a9e959e139960c01b615064565b5092915050565b6148ff67805d23296410cfab60c01b615064565b6149136747f250ccba468eb060c01b615064565b61492767f86f13e0e6922f4160c01b615064565b6000614933838361581d565b90506149496780ade2a1f8d995de60c01b615064565b600a60008481526020019081526020016000206001600a60008681526020019081526020016000208054905061497f9190616d3e565b815481106149905761498f6168db565b5b9060005260206000200160009054906101000a900473ffffffffffffffffffffffffffffffffffffffff16600a600085815260200190815260200160002082815481106149e0576149df6168db565b5b9060005260206000200160006101000a81548173ffffffffffffffffffffffffffffffffffffffff021916908373ffffffffffffffffffffffffffffffffffffffff160217905550614a3c678adfde41d2455ecc60c01b615064565b614a50672d2114b6737b1a2860c01b615064565b600a6000848152602001908152602001600020805480614a7357614a72617207565b5b6001900381819060005260206000200160006101000a81549073ffffffffffffffffffffffffffffffffffffffff02191690559055505050565b600c6020528060005260406000206000915090508060000160009054906101000a900460ff16908060000160019054906101000a900460ff16905082565b60016020528060005260406000206000915054906101000a900460ff1681565b60035481565b6007602052816000526040600020602052806000526040600020600091509150508060000154908060010154905082565b614b5667416c1e36d921778360c01b615064565b614b6a67fec16f253eff30f760c01b615064565b614b7e67e745fd46af462bf360c01b615064565b6000600760008373ffffffffffffffffffffffffffffffffffffffff1673ffffffffffffffffffffffffffffffffffffffff168152602001908152602001600020600084815260200190815260200160002060000154118015614bf15750614bf067bb60e5f51f29cbcd60c01b615812565b5b80614c6b57506000600760008373ffffffffffffffffffffffffffffffffffffffff1673ffffffffffffffffffffffffffffffffffffffff168152602001908152602001600020600084815260200190815260200160002060010154118015614c6a5750614c69675352fda3bfad2f3c60c01b615812565b5b5b15614d0057614c84674c858962bea9c37f60c01b615064565b614c9867f5097728832270a360c01b615064565b600760008273ffffffffffffffffffffffffffffffffffffffff1673ffffffffffffffffffffffffffffffffffffffff168152602001908152602001600020600083815260200190815260200160002060008082016000905560018201600090555050614d15565b614d1467c3a68e6ae487c8e360c01b615064565b5b5050565b614d21615067565b600073ffffffffffffffffffffffffffffffffffffffff168173ffffffffffffffffffffffffffffffffffffffff1603614d935760006040517f1e4fbdf7000000000000000000000000000000000000000000000000000000008152600401614d8a9190615eae565b60405180910390fd5b614d9c8161574c565b50565b60008054906101000a900473ffffffffffffffffffffffffffffffffffffffff1681565b614dd76714ae6cd82f6df91d60c01b615538565b614deb6762a87dd84947187660c01b615538565b614dff67bdc651370e1895f160c01b615538565b614e1367431636f03f3e702860c01b615538565b614e2767858e65d19b3f371360c01b615538565b60008054906101000a900473ffffffffffffffffffffffffffffffffffffffff1673ffffffffffffffffffffffffffffffffffffffff163373ffffffffffffffffffffffffffffffffffffffff1614614eb5576040517f08c379a0000000000000000000000000000000000000000000000000000000008152600401614eac9061717b565b60405180910390fd5b614ec967d2dd86cf4fb0be0160c01b615538565b614edd67ec43525350fb6f3360c01b615538565b614ef16776a74956a712e7a060c01b615538565b614f05673d225fda99242ae860c01b615538565b614f1967cbe5d91aa3218e1860c01b615538565b60018060008373ffffffffffffffffffffffffffffffffffffffff1673ffffffffffffffffffffffffffffffffffffffff16815260200190815260200160002060006101000a81548160ff021916908315150217905550614f84675de038ad97eef80160c01b615538565b614f9867a06ef3f6518acd4c60c01b615538565b7f7f8b7dc89dae85811a7a85800b892b5816ad5d381c856f1b56490f8fc470c9cb81604051614fc79190615eae565b60405180910390a150565b6000614fe867555ec0596a67d55260c01b615538565b614ffc67f82ae9507624379c60c01b615538565b61501067489b6e48589c4a0360c01b615538565b600160008373ffffffffffffffffffffffffffffffffffffffff1673ffffffffffffffffffffffffffffffffffffffff16815260200190815260200160002060009054906101000a900460ff169050919050565b50565b61506f615a22565b73ffffffffffffffffffffffffffffffffffffffff1661508d613d98565b73ffffffffffffffffffffffffffffffffffffffff16146150ec576150b0615a22565b6040517f118cdaa70000000000000000000000000000000000000000000000000000000081526004016150e39190615eae565b60405180910390fd5b565b6000615104674864fef30ac2a73a60c01b615064565b61511867b6957f982484de9560c01b615064565b61512c6779035c12f624a88260c01b615064565b8183108061514a5750615149673609e24d1c7523b160c01b615a2a565b5b8015615166575061516567a1ee57a0cfdced8660c01b615812565b5b6151705781615172565b825b905092915050565b61518e6765ef3e38975accf060c01b615064565b6151a2673996440e5188f83e60c01b615064565b6151b6676f5d6b4109fb81cf60c01b615064565b60008060009054906101000a900473ffffffffffffffffffffffffffffffffffffffff1690506151f067cf4dd3350c346ea360c01b615064565b61520467e1406ac03a2b5abb60c01b615064565b6000600560009054906101000a900473ffffffffffffffffffffffffffffffffffffffff1673ffffffffffffffffffffffffffffffffffffffff1663a9059cbb83856040518363ffffffff1660e01b815260040161526392919061749c565b6020604051808303816000875af1158015615282573d6000803e3d6000fd5b505050506040513d601f19601f820116820180604052508101906152a6919061676a565b90506152bc67b32fd7db39cd587260c01b615064565b6152d06728743982506111fb60c01b615064565b6152e467c66aafdd814ae5d260c01b615064565b80615324576040517f08c379a000000000000000000000000000000000000000000000000000000000815260040161531b90617511565b60405180910390fd5b6153386742823eb200ea9a3b60c01b615064565b61534c67aef8bf28a90daebb60c01b615064565b6153606747331f5c2e21f34d60c01b615064565b6000600560009054906101000a900473ffffffffffffffffffffffffffffffffffffffff1673ffffffffffffffffffffffffffffffffffffffff1663a9059cbb87876040518363ffffffff1660e01b81526004016153bf92919061749c565b6020604051808303816000875af11580156153de573d6000803e3d6000fd5b505050506040513d601f19601f82011682018060405250810190615402919061676a565b90506154186792e677ed0e4dcc4760c01b615064565b61542c6745f76b9424bcbaf260c01b615064565b615440679a856e38759045c260c01b615064565b80615480576040517f08c379a00000000000000000000000000000000000000000000000000000000081526004016154779061757d565b60405180910390fd5b61549467ada352b1910741b960c01b615064565b6154a867fa6bd986e02ef87c60c01b615064565b6154bc671d2f12547312a09060c01b615064565b8273ffffffffffffffffffffffffffffffffffffffff168673ffffffffffffffffffffffffffffffffffffffff167f7a7b1b956317e80ff1033607bac9eec22aa4a3cadceb2eb5398a9710dd0d2be386886155179190616a7c565b87896040516155289392919061759d565b60405180910390a3505050505050565b50565b6000615551675b0d2f3b4f7897e360c01b615064565b61556567287f5759edc2889260c01b615064565b61557967df2c69d820fe580660c01b615064565b6000600860008573ffffffffffffffffffffffffffffffffffffffff1673ffffffffffffffffffffffffffffffffffffffff1681526020019081526020016000208054905090506155d4678c6f2c8deac5b0fb60c01b615064565b6155e867433bc325d8427a1860c01b615064565b60005b818110156156e25761560767deffcb830ec92f1260c01b615064565b61561b67e7a29e4e483da84d60c01b615064565b83600860008773ffffffffffffffffffffffffffffffffffffffff1673ffffffffffffffffffffffffffffffffffffffff168152602001908152602001600020828154811061566d5761566c6168db565b5b9060005260206000200154036156c35761569167bdba93b36c34f46060c01b615064565b6156a567c6ff0e06f7a95d1760c01b615064565b6156b967117c810dafaffbbb60c01b615064565b8092505050615746565b6156d7679805fe804832ba2e60c01b615064565b8060010190506155eb565b506156f7679f378e619304f68360c01b615064565b61570b67465f4e5facc078a060c01b615064565b6040517f08c379a000000000000000000000000000000000000000000000000000000000815260040161573d90617646565b60405180910390fd5b92915050565b6000600260009054906101000a900473ffffffffffffffffffffffffffffffffffffffff16905081600260006101000a81548173ffffffffffffffffffffffffffffffffffffffff021916908373ffffffffffffffffffffffffffffffffffffffff1602179055508173ffffffffffffffffffffffffffffffffffffffff168173ffffffffffffffffffffffffffffffffffffffff167f8be0079c531659141344cd1fd0a4f28419497f9722a3daafe3b4186f6b6457e060405160405180910390a35050565b600060019050919050565b6000615833670ee8e95789f4c09a60c01b615064565b6158476712f00675f6e0da3660c01b615064565b61585b6752a91d8d58d423e360c01b615064565b6000600a600085815260200190815260200160002080549050905061588a6707383c8794bcd92a60c01b615064565b61589e67241741c56bbcf33160c01b615064565b60005b818110156159b8576158bd67c5008d56839e9b1660c01b615064565b6158d167905653618d7bb22060c01b615064565b8373ffffffffffffffffffffffffffffffffffffffff16600a6000878152602001908152602001600020828154811061590d5761590c6168db565b5b9060005260206000200160009054906101000a900473ffffffffffffffffffffffffffffffffffffffff1673ffffffffffffffffffffffffffffffffffffffff160361599957615967677b4196fc5016e6ce60c01b615064565b61597b67a7e50cfb4264814960c01b615064565b61598f67d3cb9849b714ce4c60c01b615064565b8092505050615a1c565b6159ad678a84603023610b9460c01b615064565b8060010190506158a1565b506159cd67aa26a4b47cd1182560c01b615064565b6159e1675b86385ad1d77ac360c01b615064565b6040517f08c379a0000000000000000000000000000000000000000000000000000000008152600401615a1390617646565b60405180910390fd5b92915050565b600033905090565b6000919050565b5080546000825590600052602060002090810190615a4f9190615a52565b50565b5b80821115615a6b576000816000905550600101615a53565b5090565b6000604051905090565b600080fd5b600080fd5b6000819050919050565b615a9681615a83565b8114615aa157600080fd5b50565b600081359050615ab381615a8d565b92915050565b600060208284031215615acf57615ace615a79565b5b6000615add84828501615aa4565b91505092915050565b60008115159050919050565b615afb81615ae6565b82525050565b6000602082019050615b166000830184615af2565b92915050565b600080fd5b600080fd5b6000601f19601f8301169050919050565b7f4e487b7100000000000000000000000000000000000000000000000000000000600052604160045260246000fd5b615b6f82615b26565b810181811067ffffffffffffffff82111715615b8e57615b8d615b37565b5b80604052505050565b6000615ba1615a6f565b9050615bad8282615b66565b919050565b600067ffffffffffffffff821115615bcd57615bcc615b37565b5b615bd682615b26565b9050602081019050919050565b82818337600083830152505050565b6000615c05615c0084615bb2565b615b97565b905082815260208101848484011115615c2157615c20615b21565b5b615c2c848285615be3565b509392505050565b600082601f830112615c4957615c48615b1c565b5b8135615c59848260208601615bf2565b91505092915050565b60008060408385031215615c7957615c78615a79565b5b6000615c8785828601615aa4565b925050602083013567ffffffffffffffff811115615ca857615ca7615a7e565b5b615cb485828601615c34565b9150509250929050565b600067ffffffffffffffff821115615cd957615cd8615b37565b5b602082029050602081019050919050565b600080fd5b6000615d02615cfd84615cbe565b615b97565b90508083825260208201905060208402830185811115615d2557615d24615cea565b5b835b81811015615d4e5780615d3a8882615aa4565b845260208401935050602081019050615d27565b5050509392505050565b600082601f830112615d6d57615d6c615b1c565b5b8135615d7d848260208601615cef565b91505092915050565b600080600060608486031215615d9f57615d9e615a79565b5b600084013567ffffffffffffffff811115615dbd57615dbc615a7e565b5b615dc986828701615d58565b935050602084013567ffffffffffffffff811115615dea57615de9615a7e565b5b615df686828701615d58565b925050604084013567ffffffffffffffff811115615e1757615e16615a7e565b5b615e2386828701615d58565b9150509250925092565b60008060408385031215615e4457615e43615a79565b5b6000615e5285828601615aa4565b9250506020615e6385828601615aa4565b9150509250929050565b600073ffffffffffffffffffffffffffffffffffffffff82169050919050565b6000615e9882615e6d565b9050919050565b615ea881615e8d565b82525050565b6000602082019050615ec36000830184615e9f565b92915050565b60058110615ed657600080fd5b50565b600081359050615ee881615ec9565b92915050565b615ef781615ae6565b8114615f0257600080fd5b50565b600081359050615f1481615eee565b92915050565b600080600060608486031215615f3357615f32615a79565b5b6000615f4186828701615aa4565b9350506020615f5286828701615ed9565b9250506040615f6386828701615f05565b9150509250925092565b60008060408385031215615f8457615f83615a79565b5b600083013567ffffffffffffffff811115615fa257615fa1615a7e565b5b615fae85828601615d58565b925050602083013567ffffffffffffffff811115615fcf57615fce615a7e565b5b615fdb85828601615d58565b9150509250929050565b615fee81615e8d565b8114615ff957600080fd5b50565b60008135905061600b81615fe5565b92915050565b60006020828403121561602757616026615a79565b5b600061603584828501615ffc565b91505092915050565b600081519050919050565b600082825260208201905092915050565b6000819050602082019050919050565b61607381615a83565b82525050565b6000616085838361606a565b60208301905092915050565b6000602082019050919050565b60006160a98261603e565b6160b38185616049565b93506160be8361605a565b8060005b838110156160ef5781516160d68882616079565b97506160e183616091565b9250506001810190506160c2565b5085935050505092915050565b60006020820190508181036000830152616116818461609e565b905092915050565b6000819050919050565b600061614361613e61613984615e6d565b61611e565b615e6d565b9050919050565b600061615582616128565b9050919050565b60006161678261614a565b9050919050565b6161778161615c565b82525050565b6000602082019050616192600083018461616e565b92915050565b600080604083850312156161af576161ae615a79565b5b60006161bd85828601615aa4565b92505060206161ce85828601615ffc565b9150509250929050565b60006161e38261614a565b9050919050565b6161f3816161d8565b82525050565b600060208201905061620e60008301846161ea565b92915050565b6000806040838503121561622b5761622a615a79565b5b600061623985828601615ffc565b925050602061624a85828601615aa4565b9150509250929050565b61625d81615a83565b82525050565b60006020820190506162786000830184616254565b92915050565b600081519050919050565b600082825260208201905092915050565b60005b838110156162b857808201518184015260208101905061629d565b60008484015250505050565b60006162cf8261627e565b6162d98185616289565b93506162e981856020860161629a565b6162f281615b26565b840191505092915050565b6000602082019050818103600083015261631781846162c4565b905092915050565b6000806040838503121561633657616335615a79565b5b600061634485828601615ed9565b925050602061635585828601615f05565b9150509250929050565b7f4e487b7100000000000000000000000000000000000000000000000000000000600052602160045260246000fd5b6005811061639f5761639e61635f565b5b50565b60008190506163b08261638e565b919050565b60006163c0826163a2565b9050919050565b6163d0816163b5565b82525050565b60006040820190506163eb60008301856163c7565b6163f86020830184615af2565b9392505050565b60006040820190506164146000830185616254565b6164216020830184616254565b9392505050565b7f4e487b7100000000000000000000000000000000000000000000000000000000600052602260045260246000fd5b6000600282049050600182168061646f57607f821691505b60208210810361648257616481616428565b5b50919050565b60008190508160005260206000209050919050565b60006020601f8301049050919050565b600082821b905092915050565b6000600883026164ea7fffffffffffffffffffffffffffffffffffffffffffffffffffffffffffffffff826164ad565b6164f486836164ad565b95508019841693508086168417925050509392505050565b600061652761652261651d84615a83565b61611e565b615a83565b9050919050565b6000819050919050565b6165418361650c565b61655561654d8261652e565b8484546164ba565b825550505050565b600090565b61656a61655d565b616575818484616538565b505050565b5b818110156165995761658e600082616562565b60018101905061657b565b5050565b601f8211156165de576165af81616488565b6165b88461649d565b810160208510156165c7578190505b6165db6165d38561649d565b83018261657a565b50505b505050565b600082821c905092915050565b6000616601600019846008026165e3565b1980831691505092915050565b600061661a83836165f0565b9150826002028217905092915050565b6166338261627e565b67ffffffffffffffff81111561664c5761664b615b37565b5b6166568254616457565b61666182828561659d565b600060209050601f8311600181146166945760008415616682578287015190505b61668c858261660e565b8655506166f4565b601f1984166166a286616488565b60005b828110156166ca578489015182556001820191506020850194506020810190506166a5565b868310156166e757848901516166e3601f8916826165f0565b8355505b6001600288020188555050505b505050505050565b60006040820190506167116000830185616254565b818103602083015261672381846162c4565b90509392505050565b60006040820190506167416000830185615e9f565b61674e6020830184615e9f565b9392505050565b60008151905061676481615eee565b92915050565b6000602082840312156167805761677f615a79565b5b600061678e84828501616755565b91505092915050565b7f417070726f76616c206e65656465640000000000000000000000000000000000600082015250565b60006167cd600f83616289565b91506167d882616797565b602082019050919050565b600060208201905081810360008301526167fc816167c0565b9050919050565b7f596f752061726520626c61636b6c69737465642e000000000000000000000000600082015250565b6000616839601483616289565b915061684482616803565b602082019050919050565b600060208201905081810360008301526168688161682c565b9050919050565b7f417272617973206d7573742062652073616d65206c656e677468000000000000600082015250565b60006168a5601a83616289565b91506168b08261686f565b602082019050919050565b600060208201905081810360008301526168d481616898565b9050919050565b7f4e487b7100000000000000000000000000000000000000000000000000000000600052603260045260246000fd5b600060408201905061691f6000830185615e9f565b61692c6020830184616254565b9392505050565b60008151905061694281615a8d565b92915050565b60006020828403121561695e5761695d615a79565b5b600061696c84828501616933565b91505092915050565b7f4e6f7420656e6f7567682062616c616e63650000000000000000000000000000600082015250565b60006169ab601283616289565b91506169b682616975565b602082019050919050565b600060208201905081810360008301526169da8161699e565b9050919050565b7f5072696365206d7573742062652067726561746572207468616e203000000000600082015250565b6000616a17601c83616289565b9150616a22826169e1565b602082019050919050565b60006020820190508181036000830152616a4681616a0a565b9050919050565b7f4e487b7100000000000000000000000000000000000000000000000000000000600052601160045260246000fd5b6000616a8782615a83565b9150616a9283615a83565b9250828201905080821115616aaa57616aa9616a4d565b5b92915050565b60006060820190508181036000830152616aca818661609e565b90508181036020830152616ade818561609e565b90508181036040830152616af2818461609e565b9050949350505050565b7f417272617973206d75737420686176652073616d65206c656e67746800000000600082015250565b6000616b32601c83616289565b9150616b3d82616afc565b602082019050919050565b60006020820190508181036000830152616b6181616b25565b9050919050565b7f446f206e6f742073656e64204554482c20706179207769746820555344542e00600082015250565b6000616b9e601f83616289565b9150616ba982616b68565b602082019050919050565b60006020820190508181036000830152616bcd81616b91565b9050919050565b7f4465736972656420616d6f756e74206d7573742062652067726561746572207460008201527f68616e207a65726f000000000000000000000000000000000000000000000000602082015250565b6000616c30602883616289565b9150616c3b82616bd4565b604082019050919050565b60006020820190508181036000830152616c5f81616c23565b9050919050565b7f4e6f7420656e6f75676820746f6b656e7320617661696c61626c650000000000600082015250565b6000616c9c601b83616289565b9150616ca782616c66565b602082019050919050565b60006020820190508181036000830152616ccb81616c8f565b9050919050565b7f4e6f7420656e6f7567682073656c6c6572730000000000000000000000000000600082015250565b6000616d08601283616289565b9150616d1382616cd2565b602082019050919050565b60006020820190508181036000830152616d3781616cfb565b9050919050565b6000616d4982615a83565b9150616d5483615a83565b9250828203905081811115616d6c57616d6b616a4d565b5b92915050565b7f5072696365206368616e67656421000000000000000000000000000000000000600082015250565b6000616da8600e83616289565b9150616db382616d72565b602082019050919050565b60006020820190508181036000830152616dd781616d9b565b9050919050565b6000616de982615a83565b9150616df483615a83565b9250828202616e0281615a83565b91508282048414831517616e1957616e18616a4d565b5b5092915050565b7f4e487b7100000000000000000000000000000000000000000000000000000000600052601260045260246000fd5b6000616e5a82615a83565b9150616e6583615a83565b925082616e7557616e74616e20565b5b828204905092915050565b7f496e73756666696369656e742062616c616e6365000000000000000000000000600082015250565b6000616eb6601483616289565b9150616ec182616e80565b602082019050919050565b60006020820190508181036000830152616ee581616ea9565b9050919050565b7f496e73756666696369656e74205553445420616c6c6f77616e63650000000000600082015250565b6000616f22601b83616289565b9150616f2d82616eec565b602082019050919050565b60006020820190508181036000830152616f5181616f15565b9050919050565b6000606082019050616f6d6000830186615e9f565b616f7a6020830185615e9f565b616f876040830184616254565b949350505050565b600082825260208201905092915050565b50565b6000616fb0600083616f8f565b9150616fbb82616fa0565b600082019050919050565b600060a082019050616fdb6000830187615e9f565b616fe86020830186615e9f565b616ff56040830185616254565b6170026060830184616254565b818103608083015261701381616fa3565b905095945050505050565b600061702982615a83565b91507fffffffffffffffffffffffffffffffffffffffffffffffffffffffffffffffff820361705b5761705a616a4d565b5b600182019050919050565b60006040820190508181036000830152617080818561609e565b90508181036020830152617094818461609e565b90509392505050565b7f4e6f7420656e6f75676820746f6b656e7320696e2073746f636b000000000000600082015250565b60006170d3601a83616289565b91506170de8261709d565b602082019050919050565b60006020820190508181036000830152617102816170c6565b9050919050565b7f4f6e6c792061646d696e2063616e20706572666f726d2074686973206163746960008201527f6f6e000000000000000000000000000000000000000000000000000000000000602082015250565b6000617165602283616289565b915061717082617109565b604082019050919050565b6000602082019050818103600083015261719481617158565b9050919050565b7f546f6b656e206e6f7420666f756e6420696e206f776e65722773206c69737400600082015250565b60006171d1601f83616289565b91506171dc8261719b565b602082019050919050565b60006020820190508181036000830152617200816171c4565b9050919050565b7f4e487b7100000000000000000000000000000000000000000000000000000000600052603160045260246000fd5b7f4e6f7420656e6f75676820746f6b656e7320746f206465637265617365000000600082015250565b600061726c601d83616289565b915061727782617236565b602082019050919050565b6000602082019050818103600083015261729b8161725f565b9050919050565b6000819050919050565b60006172b7826172a2565b91506172c2836172a2565b92508282039050818112600084121682821360008512151617156172e9576172e8616a4d565b5b92915050565b60006172fa826172a2565b91507f8000000000000000000000000000000000000000000000000000000000000000820361732c5761732b616a4d565b5b600182039050919050565b7f4e6f742073656c6c696e67207468697320746f6b656e00000000000000000000600082015250565b600061736d601683616289565b915061737882617337565b602082019050919050565b6000602082019050818103600083015261739c81617360565b9050919050565b7f417272617973206d757374206265207468652073616d65206c656e6774680000600082015250565b60006173d9601e83616289565b91506173e4826173a3565b602082019050919050565b60006020820190508181036000830152617408816173cc565b9050919050565b7f4e6f7420656e6f7567682073656c6c65727320666f7220746f6b656e00000000600082015250565b6000617445601c83616289565b91506174508261740f565b602082019050919050565b6000602082019050818103600083015261747481617438565b9050919050565b60006174868261614a565b9050919050565b6174968161747b565b82525050565b60006040820190506174b1600083018561748d565b6174be6020830184616254565b9392505050565b7f4661696c656420746f207472616e736665722066656520746f206f776e657200600082015250565b60006174fb601f83616289565b9150617506826174c5565b602082019050919050565b6000602082019050818103600083015261752a816174ee565b9050919050565b7f4661696c656420746f207472616e7366657220746f2073656c6c657200000000600082015250565b6000617567601c83616289565b915061757282617531565b602082019050919050565b600060208201905081810360008301526175968161755a565b9050919050565b60006060820190506175b26000830186616254565b6175bf6020830185616254565b6175cc6040830184616254565b949350505050565b7f492063616e6e6f742066696e6420746865207265717565737420656c656d656e60008201527f7400000000000000000000000000000000000000000000000000000000000000602082015250565b6000617630602183616289565b915061763b826175d4565b604082019050919050565b6000602082019050818103600083015261765f81617623565b905091905056fea26469706673582212208beb51d75e9d1f3003d6dd37538dc6d0667143f5e711d01c8b23c83ed571189a64736f6c634300081c0033",
  "linkReferences": {},
  "deployedLinkReferences": {}
}