{
  "_format": "hh-sol-artifact-1",
  "contractName": "TestToken",
  "sourceName": "contracts/TestToken.sol",
  "abi": [
    {
      "inputs": [
        {
          "internalType": "string",
          "name": "initialUri",
          "type": "string"
        }
      ],
      "stateMutability": "nonpayable",
      "type": "constructor"
    },
    {
      "inputs": [
        {
          "internalType": "address",
          "name": "sender",
          "type": "address"
        },
        {
          "internalType": "uint256",
          "name": "balance",
          "type": "uint256"
        },
        {
          "internalType": "uint256",
          "name": "needed",
          "type": "uint256"
        },
        {
          "internalType": "uint256",
          "name": "tokenId",
          "type": "uint256"
        }
      ],
      "name": "ERC1155InsufficientBalance",
      "type": "error"
    },
    {
      "inputs": [
        {
          "internalType": "address",
          "name": "approver",
          "type": "address"
        }
      ],
      "name": "ERC1155InvalidApprover",
      "type": "error"
    },
    {
      "inputs": [
        {
          "internalType": "uint256",
          "name": "idsLength",
          "type": "uint256"
        },
        {
          "internalType": "uint256",
          "name": "valuesLength",
          "type": "uint256"
        }
      ],
      "name": "ERC1155InvalidArrayLength",
      "type": "error"
    },
    {
      "inputs": [
        {
          "internalType": "address",
          "name": "operator",
          "type": "address"
        }
      ],
      "name": "ERC1155InvalidOperator",
      "type": "error"
    },
    {
      "inputs": [
        {
          "internalType": "address",
          "name": "receiver",
          "type": "address"
        }
      ],
      "name": "ERC1155InvalidReceiver",
      "type": "error"
    },
    {
      "inputs": [
        {
          "internalType": "address",
          "name": "sender",
          "type": "address"
        }
      ],
      "name": "ERC1155InvalidSender",
      "type": "error"
    },
    {
      "inputs": [
        {
          "internalType": "address",
          "name": "operator",
          "type": "address"
        },
        {
          "internalType": "address",
          "name": "owner",
          "type": "address"
        }
      ],
      "name": "ERC1155MissingApprovalForAll",
      "type": "error"
    },
    {
      "inputs": [
        {
          "internalType": "address",
          "name": "owner",
          "type": "address"
        }
      ],
      "name": "OwnableInvalidOwner",
      "type": "error"
    },
    {
      "inputs": [
        {
          "internalType": "address",
          "name": "account",
          "type": "address"
        }
      ],
      "name": "OwnableUnauthorizedAccount",
      "type": "error"
    },
    {
      "anonymous": false,
      "inputs": [
        {
          "indexed": true,
          "internalType": "address",
          "name": "account",
          "type": "address"
        },
        {
          "indexed": true,
          "internalType": "address",
          "name": "operator",
          "type": "address"
        },
        {
          "indexed": false,
          "internalType": "bool",
          "name": "approved",
          "type": "bool"
        }
      ],
      "name": "ApprovalForAll",
      "type": "event"
    },
    {
      "anonymous": false,
      "inputs": [
        {
          "indexed": true,
          "internalType": "address",
          "name": "previousOwner",
          "type": "address"
        },
        {
          "indexed": true,
          "internalType": "address",
          "name": "newOwner",
          "type": "address"
        }
      ],
      "name": "OwnershipTransferred",
      "type": "event"
    },
    {
      "anonymous": false,
      "inputs": [
        {
          "indexed": true,
          "internalType": "address",
          "name": "operator",
          "type": "address"
        },
        {
          "indexed": true,
          "internalType": "address",
          "name": "from",
          "type": "address"
        },
        {
          "indexed": true,
          "internalType": "address",
          "name": "to",
          "type": "address"
        },
        {
          "indexed": false,
          "internalType": "uint256[]",
          "name": "ids",
          "type": "uint256[]"
        },
        {
          "indexed": false,
          "internalType": "uint256[]",
          "name": "values",
          "type": "uint256[]"
        }
      ],
      "name": "TransferBatch",
      "type": "event"
    },
    {
      "anonymous": false,
      "inputs": [
        {
          "indexed": true,
          "internalType": "address",
          "name": "operator",
          "type": "address"
        },
        {
          "indexed": true,
          "internalType": "address",
          "name": "from",
          "type": "address"
        },
        {
          "indexed": true,
          "internalType": "address",
          "name": "to",
          "type": "address"
        },
        {
          "indexed": false,
          "internalType": "uint256",
          "name": "id",
          "type": "uint256"
        },
        {
          "indexed": false,
          "internalType": "uint256",
          "name": "value",
          "type": "uint256"
        }
      ],
      "name": "TransferSingle",
      "type": "event"
    },
    {
      "anonymous": false,
      "inputs": [
        {
          "indexed": false,
          "internalType": "string",
          "name": "value",
          "type": "string"
        },
        {
          "indexed": true,
          "internalType": "uint256",
          "name": "id",
          "type": "uint256"
        }
      ],
      "name": "URI",
      "type": "event"
    },
    {
      "inputs": [
        {
          "internalType": "address",
          "name": "account",
          "type": "address"
        },
        {
          "internalType": "uint256",
          "name": "id",
          "type": "uint256"
        }
      ],
      "name": "balanceOf",
      "outputs": [
        {
          "internalType": "uint256",
          "name": "",
          "type": "uint256"
        }
      ],
      "stateMutability": "view",
      "type": "function"
    },
    {
      "inputs": [
        {
          "internalType": "address[]",
          "name": "accounts",
          "type": "address[]"
        },
        {
          "internalType": "uint256[]",
          "name": "ids",
          "type": "uint256[]"
        }
      ],
      "name": "balanceOfBatch",
      "outputs": [
        {
          "internalType": "uint256[]",
          "name": "",
          "type": "uint256[]"
        }
      ],
      "stateMutability": "view",
      "type": "function"
    },
    {
      "inputs": [
        {
          "internalType": "address",
          "name": "account",
          "type": "address"
        },
        {
          "internalType": "uint256",
          "name": "id",
          "type": "uint256"
        },
        {
          "internalType": "uint256",
          "name": "value",
          "type": "uint256"
        }
      ],
      "name": "burn",
      "outputs": [],
      "stateMutability": "nonpayable",
      "type": "function"
    },
    {
      "inputs": [
        {
          "internalType": "address",
          "name": "account",
          "type": "address"
        },
        {
          "internalType": "uint256[]",
          "name": "ids",
          "type": "uint256[]"
        },
        {
          "internalType": "uint256[]",
          "name": "values",
          "type": "uint256[]"
        }
      ],
      "name": "burnBatch",
      "outputs": [],
      "stateMutability": "nonpayable",
      "type": "function"
    },
    {
      "inputs": [
        {
          "internalType": "address",
          "name": "account",
          "type": "address"
        },
        {
          "internalType": "address",
          "name": "operator",
          "type": "address"
        }
      ],
      "name": "isApprovedForAll",
      "outputs": [
        {
          "internalType": "bool",
          "name": "",
          "type": "bool"
        }
      ],
      "stateMutability": "view",
      "type": "function"
    },
    {
      "inputs": [
        {
          "internalType": "address",
          "name": "account",
          "type": "address"
        },
        {
          "internalType": "uint256",
          "name": "id",
          "type": "uint256"
        },
        {
          "internalType": "uint256",
          "name": "amount",
          "type": "uint256"
        },
        {
          "internalType": "bytes",
          "name": "data",
          "type": "bytes"
        }
      ],
      "name": "mint",
      "outputs": [],
      "stateMutability": "nonpayable",
      "type": "function"
    },
    {
      "inputs": [
        {
          "internalType": "address",
          "name": "to",
          "type": "address"
        },
        {
          "internalType": "uint256[]",
          "name": "ids",
          "type": "uint256[]"
        },
        {
          "internalType": "uint256[]",
          "name": "amounts",
          "type": "uint256[]"
        },
        {
          "internalType": "bytes",
          "name": "data",
          "type": "bytes"
        }
      ],
      "name": "mintBatch",
      "outputs": [],
      "stateMutability": "nonpayable",
      "type": "function"
    },
    {
      "inputs": [],
      "name": "owner",
      "outputs": [
        {
          "internalType": "address",
          "name": "",
          "type": "address"
        }
      ],
      "stateMutability": "view",
      "type": "function"
    },
    {
      "inputs": [],
      "name": "renounceOwnership",
      "outputs": [],
      "stateMutability": "nonpayable",
      "type": "function"
    },
    {
      "inputs": [
        {
          "internalType": "address",
          "name": "from",
          "type": "address"
        },
        {
          "internalType": "address",
          "name": "to",
          "type": "address"
        },
        {
          "internalType": "uint256[]",
          "name": "ids",
          "type": "uint256[]"
        },
        {
          "internalType": "uint256[]",
          "name": "values",
          "type": "uint256[]"
        },
        {
          "internalType": "bytes",
          "name": "data",
          "type": "bytes"
        }
      ],
      "name": "safeBatchTransferFrom",
      "outputs": [],
      "stateMutability": "nonpayable",
      "type": "function"
    },
    {
      "inputs": [
        {
          "internalType": "address",
          "name": "from",
          "type": "address"
        },
        {
          "internalType": "address",
          "name": "to",
          "type": "address"
        },
        {
          "internalType": "uint256",
          "name": "id",
          "type": "uint256"
        },
        {
          "internalType": "uint256",
          "name": "value",
          "type": "uint256"
        },
        {
          "internalType": "bytes",
          "name": "data",
          "type": "bytes"
        }
      ],
      "name": "safeTransferFrom",
      "outputs": [],
      "stateMutability": "nonpayable",
      "type": "function"
    },
    {
      "inputs": [
        {
          "internalType": "address",
          "name": "operator",
          "type": "address"
        },
        {
          "internalType": "bool",
          "name": "approved",
          "type": "bool"
        }
      ],
      "name": "setApprovalForAll",
      "outputs": [],
      "stateMutability": "nonpayable",
      "type": "function"
    },
    {
      "inputs": [
        {
          "internalType": "string",
          "name": "newuri",
          "type": "string"
        }
      ],
      "name": "setURI",
      "outputs": [],
      "stateMutability": "nonpayable",
      "type": "function"
    },
    {
      "inputs": [
        {
          "internalType": "bytes4",
          "name": "interfaceId",
          "type": "bytes4"
        }
      ],
      "name": "supportsInterface",
      "outputs": [
        {
          "internalType": "bool",
          "name": "",
          "type": "bool"
        }
      ],
      "stateMutability": "view",
      "type": "function"
    },
    {
      "inputs": [
        {
          "internalType": "address",
          "name": "newOwner",
          "type": "address"
        }
      ],
      "name": "transferOwnership",
      "outputs": [],
      "stateMutability": "nonpayable",
      "type": "function"
    },
    {
      "inputs": [
        {
          "internalType": "uint256",
          "name": "id",
          "type": "uint256"
        }
      ],
      "name": "uri",
      "outputs": [
        {
          "internalType": "string",
          "name": "",
          "type": "string"
        }
      ],
      "stateMutability": "view",
      "type": "function"
    }
  ],
  "bytecode": "0x608060405234801561001057600080fd5b5060405161372e38038061372e83398181016040528101906100329190610361565b33816100438161011060201b60201c565b50600073ffffffffffffffffffffffffffffffffffffffff168173ffffffffffffffffffffffffffffffffffffffff16036100b65760006040517f1e4fbdf70000000000000000000000000000000000000000000000000000000081526004016100ad91906103eb565b60405180910390fd5b6100c58161012360201b60201c565b506100e06747477b49d601a01160c01b6101e960201b60201c565b6100fa67361aa681153d34ef60c01b6101e960201b60201c565b80600490816101099190610627565b50506106f9565b806002908161011f9190610627565b5050565b6000600360009054906101000a900473ffffffffffffffffffffffffffffffffffffffff16905081600360006101000a81548173ffffffffffffffffffffffffffffffffffffffff021916908373ffffffffffffffffffffffffffffffffffffffff1602179055508173ffffffffffffffffffffffffffffffffffffffff168173ffffffffffffffffffffffffffffffffffffffff167f8be0079c531659141344cd1fd0a4f28419497f9722a3daafe3b4186f6b6457e060405160405180910390a35050565b50565b6000604051905090565b600080fd5b600080fd5b600080fd5b600080fd5b6000601f19601f8301169050919050565b7f4e487b7100000000000000000000000000000000000000000000000000000000600052604160045260246000fd5b6102538261020a565b810181811067ffffffffffffffff821117156102725761027161021b565b5b80604052505050565b60006102856101ec565b9050610291828261024a565b919050565b600067ffffffffffffffff8211156102b1576102b061021b565b5b6102ba8261020a565b9050602081019050919050565b60005b838110156102e55780820151818401526020810190506102ca565b60008484015250505050565b60006103046102ff84610296565b61027b565b9050828152602081018484840111156103205761031f610205565b5b61032b8482856102c7565b509392505050565b600082601f83011261034857610347610200565b5b81516103588482602086016102f1565b91505092915050565b600060208284031215610377576103766101f6565b5b600082015167ffffffffffffffff811115610395576103946101fb565b5b6103a184828501610333565b91505092915050565b600073ffffffffffffffffffffffffffffffffffffffff82169050919050565b60006103d5826103aa565b9050919050565b6103e5816103ca565b82525050565b600060208201905061040060008301846103dc565b92915050565b600081519050919050565b7f4e487b7100000000000000000000000000000000000000000000000000000000600052602260045260246000fd5b6000600282049050600182168061045857607f821691505b60208210810361046b5761046a610411565b5b50919050565b60008190508160005260206000209050919050565b60006020601f8301049050919050565b600082821b905092915050565b6000600883026104d37fffffffffffffffffffffffffffffffffffffffffffffffffffffffffffffffff82610496565b6104dd8683610496565b95508019841693508086168417925050509392505050565b6000819050919050565b6000819050919050565b600061052461051f61051a846104f5565b6104ff565b6104f5565b9050919050565b6000819050919050565b61053e83610509565b61055261054a8261052b565b8484546104a3565b825550505050565b600090565b61056761055a565b610572818484610535565b505050565b5b818110156105965761058b60008261055f565b600181019050610578565b5050565b601f8211156105db576105ac81610471565b6105b584610486565b810160208510156105c4578190505b6105d86105d085610486565b830182610577565b50505b505050565b600082821c905092915050565b60006105fe600019846008026105e0565b1980831691505092915050565b600061061783836105ed565b9150826002028217905092915050565b61063082610406565b67ffffffffffffffff8111156106495761064861021b565b5b6106538254610440565b61065e82828561059a565b600060209050601f831160018114610691576000841561067f578287015190505b610689858261060b565b8655506106f1565b601f19841661069f86610471565b60005b828110156106c7578489015182556001820191506020850194506020810190506106a2565b868310156106e457848901516106e0601f8916826105ed565b8355505b6001600288020188555050505b505050505050565b613026806107086000396000f3fe608060405234801561001057600080fd5b50600436106100ff5760003560e01c8063715018a611610097578063e985e9c511610066578063e985e9c514610294578063f242432a146102c4578063f2fde38b146102e0578063f5298aca146102fc576100ff565b8063715018a614610234578063731133e91461023e5780638da5cb5b1461025a578063a22cb46514610278576100ff565b80631f7fdffa116100d35780631f7fdffa146101b05780632eb2c2d6146101cc5780634e1273f4146101e85780636b20c45414610218576100ff565b8062fdd58e1461010457806301ffc9a71461013457806302fe5305146101645780630e89341c14610180575b600080fd5b61011e60048036038101906101199190611dbc565b610318565b60405161012b9190611e0b565b60405180910390f35b61014e60048036038101906101499190611e7e565b610372565b60405161015b9190611ec6565b60405180910390f35b61017e60048036038101906101799190612027565b610454565b005b61019a60048036038101906101959190612070565b6104bf565b6040516101a7919061211c565b60405180910390f35b6101ca60048036038101906101c591906122a7565b61052f565b005b6101e660048036038101906101e19190612362565b6105ad565b005b61020260048036038101906101fd91906124f4565b610655565b60405161020f919061262a565b60405180910390f35b610232600480360381019061022d919061264c565b61075e565b005b61023c61080a565b005b610258600480360381019061025391906126d7565b61081e565b005b61026261089c565b60405161026f9190612769565b60405180910390f35b610292600480360381019061028d91906127b0565b6108c6565b005b6102ae60048036038101906102a991906127f0565b6108dc565b6040516102bb9190611ec6565b60405180910390f35b6102de60048036038101906102d99190612830565b610970565b005b6102fa60048036038101906102f591906128c7565b610a18565b005b610316600480360381019061031191906128f4565b610a9e565b005b600080600083815260200190815260200160002060008473ffffffffffffffffffffffffffffffffffffffff1673ffffffffffffffffffffffffffffffffffffffff16815260200190815260200160002054905092915050565b60007fd9b67a26000000000000000000000000000000000000000000000000000000007bffffffffffffffffffffffffffffffffffffffffffffffffffffffff1916827bffffffffffffffffffffffffffffffffffffffffffffffffffffffff1916148061043d57507f0e89341c000000000000000000000000000000000000000000000000000000007bffffffffffffffffffffffffffffffffffffffffffffffffffffffff1916827bffffffffffffffffffffffffffffffffffffffffffffffffffffffff1916145b8061044d575061044c82610b4a565b5b9050919050565b61046867044df0ed03e3c24460c01b610bb4565b610470610bb7565b610484673e598b5de978ff5860c01b610bb4565b61049867b6f2f204b99346ec60c01b610bb4565b6104ac6758c326ca5658de4260c01b610bb4565b80600490816104bb9190612b53565b5050565b60606104d567cff53aef61a0808560c01b610bb4565b6104e967f3c80414a8af268e60c01b610bb4565b6104fd67491cf3dcdd854e9060c01b610bb4565b600461050883610c3e565b604051602001610519929190612ce4565b6040516020818303038152906040529050919050565b610543672356840891c471a260c01b610bb4565b61054b610bb7565b61055f672765537a9e7e319160c01b610bb4565b61057367452d799f7dc6487660c01b610bb4565b61058767c6ec73269afef51b60c01b610bb4565b61059b67eb72a2f834d81bf860c01b610bb4565b6105a784848484610d0c565b50505050565b60006105b7610d92565b90508073ffffffffffffffffffffffffffffffffffffffff168673ffffffffffffffffffffffffffffffffffffffff16141580156105fc57506105fa86826108dc565b155b156106405780866040517fe237d922000000000000000000000000000000000000000000000000000000008152600401610637929190612d08565b60405180910390fd5b61064d8686868686610d9a565b505050505050565b606081518351146106a157815183516040517f5b059991000000000000000000000000000000000000000000000000000000008152600401610698929190612d31565b60405180910390fd5b6000835167ffffffffffffffff8111156106be576106bd611efc565b5b6040519080825280602002602001820160405280156106ec5781602001602082028036833780820191505090505b50905060005b8451811015610753576107296107118287610e9290919063ffffffff16565b6107248387610ea690919063ffffffff16565b610318565b82828151811061073c5761073b612d5a565b5b6020026020010181815250508060010190506106f2565b508091505092915050565b610766610d92565b73ffffffffffffffffffffffffffffffffffffffff168373ffffffffffffffffffffffffffffffffffffffff16141580156107af57506107ad836107a8610d92565b6108dc565b155b156107fa576107bc610d92565b836040517fe237d9220000000000000000000000000000000000000000000000000000000081526004016107f1929190612d08565b60405180910390fd5b610805838383610eba565b505050565b610812610bb7565b61081c6000610f4e565b565b610832672787e2913de9679c60c01b610bb4565b61083a610bb7565b61084e67b9c695c9355e172760c01b610bb4565b6108626723e4b88e93e3275360c01b610bb4565b610876676517f82d6bb8fa8260c01b610bb4565b61088a67ff9559da90de55c860c01b610bb4565b61089684848484611014565b50505050565b6000600360009054906101000a900473ffffffffffffffffffffffffffffffffffffffff16905090565b6108d86108d1610d92565b83836110ad565b5050565b6000600160008473ffffffffffffffffffffffffffffffffffffffff1673ffffffffffffffffffffffffffffffffffffffff16815260200190815260200160002060008373ffffffffffffffffffffffffffffffffffffffff1673ffffffffffffffffffffffffffffffffffffffff16815260200190815260200160002060009054906101000a900460ff16905092915050565b600061097a610d92565b90508073ffffffffffffffffffffffffffffffffffffffff168673ffffffffffffffffffffffffffffffffffffffff16141580156109bf57506109bd86826108dc565b155b15610a035780866040517fe237d9220000000000000000000000000000000000000000000000000000000081526004016109fa929190612d08565b60405180910390fd5b610a10868686868661121d565b505050505050565b610a20610bb7565b600073ffffffffffffffffffffffffffffffffffffffff168173ffffffffffffffffffffffffffffffffffffffff1603610a925760006040517f1e4fbdf7000000000000000000000000000000000000000000000000000000008152600401610a899190612769565b60405180910390fd5b610a9b81610f4e565b50565b610aa6610d92565b73ffffffffffffffffffffffffffffffffffffffff168373ffffffffffffffffffffffffffffffffffffffff1614158015610aef5750610aed83610ae8610d92565b6108dc565b155b15610b3a57610afc610d92565b836040517fe237d922000000000000000000000000000000000000000000000000000000008152600401610b31929190612d08565b60405180910390fd5b610b45838383611328565b505050565b60007f01ffc9a7000000000000000000000000000000000000000000000000000000007bffffffffffffffffffffffffffffffffffffffffffffffffffffffff1916827bffffffffffffffffffffffffffffffffffffffffffffffffffffffff1916149050919050565b50565b610bbf610d92565b73ffffffffffffffffffffffffffffffffffffffff16610bdd61089c565b73ffffffffffffffffffffffffffffffffffffffff1614610c3c57610c00610d92565b6040517f118cdaa7000000000000000000000000000000000000000000000000000000008152600401610c339190612769565b60405180910390fd5b565b606060006001610c4d846113cf565b01905060008167ffffffffffffffff811115610c6c57610c6b611efc565b5b6040519080825280601f01601f191660200182016040528015610c9e5781602001600182028036833780820191505090505b509050600082602083010190505b600115610d01578080600190039150507f3031323334353637383961626364656600000000000000000000000000000000600a86061a8153600a8581610cf557610cf4612d89565b5b04945060008503610cac575b819350505050919050565b600073ffffffffffffffffffffffffffffffffffffffff168473ffffffffffffffffffffffffffffffffffffffff1603610d7e5760006040517f57f447ce000000000000000000000000000000000000000000000000000000008152600401610d759190612769565b60405180910390fd5b610d8c600085858585611522565b50505050565b600033905090565b600073ffffffffffffffffffffffffffffffffffffffff168473ffffffffffffffffffffffffffffffffffffffff1603610e0c5760006040517f57f447ce000000000000000000000000000000000000000000000000000000008152600401610e039190612769565b60405180910390fd5b600073ffffffffffffffffffffffffffffffffffffffff168573ffffffffffffffffffffffffffffffffffffffff1603610e7e5760006040517f01a83514000000000000000000000000000000000000000000000000000000008152600401610e759190612769565b60405180910390fd5b610e8b8585858585611522565b5050505050565b600060208202602084010151905092915050565b600060208202602084010151905092915050565b600073ffffffffffffffffffffffffffffffffffffffff168373ffffffffffffffffffffffffffffffffffffffff1603610f2c5760006040517f01a83514000000000000000000000000000000000000000000000000000000008152600401610f239190612769565b60405180910390fd5b610f49836000848460405180602001604052806000815250611522565b505050565b6000600360009054906101000a900473ffffffffffffffffffffffffffffffffffffffff16905081600360006101000a81548173ffffffffffffffffffffffffffffffffffffffff021916908373ffffffffffffffffffffffffffffffffffffffff1602179055508173ffffffffffffffffffffffffffffffffffffffff168173ffffffffffffffffffffffffffffffffffffffff167f8be0079c531659141344cd1fd0a4f28419497f9722a3daafe3b4186f6b6457e060405160405180910390a35050565b600073ffffffffffffffffffffffffffffffffffffffff168473ffffffffffffffffffffffffffffffffffffffff16036110865760006040517f57f447ce00000000000000000000000000000000000000000000000000000000815260040161107d9190612769565b60405180910390fd5b60008061109385856115d4565b915091506110a5600087848487611522565b505050505050565b600073ffffffffffffffffffffffffffffffffffffffff168273ffffffffffffffffffffffffffffffffffffffff160361111f5760006040517fced3e1000000000000000000000000000000000000000000000000000000000081526004016111169190612769565b60405180910390fd5b80600160008573ffffffffffffffffffffffffffffffffffffffff1673ffffffffffffffffffffffffffffffffffffffff16815260200190815260200160002060008473ffffffffffffffffffffffffffffffffffffffff1673ffffffffffffffffffffffffffffffffffffffff16815260200190815260200160002060006101000a81548160ff0219169083151502179055508173ffffffffffffffffffffffffffffffffffffffff168373ffffffffffffffffffffffffffffffffffffffff167f17307eab39ab6107e8899845ad3d59bd9653f200f220920489ca2b5937696c31836040516112109190611ec6565b60405180910390a3505050565b600073ffffffffffffffffffffffffffffffffffffffff168473ffffffffffffffffffffffffffffffffffffffff160361128f5760006040517f57f447ce0000000000000000000000000000000000000000000000000000000081526004016112869190612769565b60405180910390fd5b600073ffffffffffffffffffffffffffffffffffffffff168573ffffffffffffffffffffffffffffffffffffffff16036113015760006040517f01a835140000000000000000000000000000000000000000000000000000000081526004016112f89190612769565b60405180910390fd5b60008061130e85856115d4565b9150915061131f8787848487611522565b50505050505050565b600073ffffffffffffffffffffffffffffffffffffffff168373ffffffffffffffffffffffffffffffffffffffff160361139a5760006040517f01a835140000000000000000000000000000000000000000000000000000000081526004016113919190612769565b60405180910390fd5b6000806113a784846115d4565b915091506113c8856000848460405180602001604052806000815250611522565b5050505050565b600080600090507a184f03e93ff9f4daa797ed6e38ed64bf6a1f010000000000000000831061142d577a184f03e93ff9f4daa797ed6e38ed64bf6a1f010000000000000000838161142357611422612d89565b5b0492506040810190505b6d04ee2d6d415b85acef8100000000831061146a576d04ee2d6d415b85acef810000000083816114605761145f612d89565b5b0492506020810190505b662386f26fc10000831061149957662386f26fc10000838161148f5761148e612d89565b5b0492506010810190505b6305f5e10083106114c2576305f5e10083816114b8576114b7612d89565b5b0492506008810190505b61271083106114e75761271083816114dd576114dc612d89565b5b0492506004810190505b6064831061150a5760648381611500576114ff612d89565b5b0492506002810190505b600a8310611519576001810190505b80915050919050565b61152e85858585611604565b600073ffffffffffffffffffffffffffffffffffffffff168473ffffffffffffffffffffffffffffffffffffffff16146115cd57600061156c610d92565b905060018451036115bc57600061158d600086610ea690919063ffffffff16565b905060006115a5600086610ea690919063ffffffff16565b90506115b58389898585896119ac565b50506115cb565b6115ca818787878787611b60565b5b505b5050505050565b60608060405191506001825283602083015260408201905060018152826020820152604081016040529250929050565b805182511461164e57815181516040517f5b059991000000000000000000000000000000000000000000000000000000008152600401611645929190612d31565b60405180910390fd5b6000611658610d92565b905060005b835181101561186757600061167b8286610ea690919063ffffffff16565b905060006116928386610ea690919063ffffffff16565b9050600073ffffffffffffffffffffffffffffffffffffffff168873ffffffffffffffffffffffffffffffffffffffff16146117bf57600080600084815260200190815260200160002060008a73ffffffffffffffffffffffffffffffffffffffff1673ffffffffffffffffffffffffffffffffffffffff1681526020019081526020016000205490508181101561176757888183856040517f03dee4c500000000000000000000000000000000000000000000000000000000815260040161175e9493929190612db8565b60405180910390fd5b81810360008085815260200190815260200160002060008b73ffffffffffffffffffffffffffffffffffffffff1673ffffffffffffffffffffffffffffffffffffffff16815260200190815260200160002081905550505b600073ffffffffffffffffffffffffffffffffffffffff168773ffffffffffffffffffffffffffffffffffffffff161461185a578060008084815260200190815260200160002060008973ffffffffffffffffffffffffffffffffffffffff1673ffffffffffffffffffffffffffffffffffffffff16815260200190815260200160002060008282546118529190612e2c565b925050819055505b505080600101905061165d565b506001835103611926576000611887600085610ea690919063ffffffff16565b9050600061189f600085610ea690919063ffffffff16565b90508573ffffffffffffffffffffffffffffffffffffffff168773ffffffffffffffffffffffffffffffffffffffff168473ffffffffffffffffffffffffffffffffffffffff167fc3d58168c5ae7397731d063d5bbf3d657854427343f4c083240f7aacaa2d0f628585604051611917929190612d31565b60405180910390a450506119a5565b8373ffffffffffffffffffffffffffffffffffffffff168573ffffffffffffffffffffffffffffffffffffffff168273ffffffffffffffffffffffffffffffffffffffff167f4a39dc06d4c0dbc64b70af90fd698a233a518aa5d07e595d983b8c0526c8f7fb868660405161199c929190612e60565b60405180910390a45b5050505050565b60008473ffffffffffffffffffffffffffffffffffffffff163b1115611b58578373ffffffffffffffffffffffffffffffffffffffff1663f23a6e6187878686866040518663ffffffff1660e01b8152600401611a0d959493929190612eec565b6020604051808303816000875af1925050508015611a4957506040513d601f19601f82011682018060405250810190611a469190612f5b565b60015b611acd573d8060008114611a79576040519150601f19603f3d011682016040523d82523d6000602084013e611a7e565b606091505b506000815103611ac557846040517f57f447ce000000000000000000000000000000000000000000000000000000008152600401611abc9190612769565b60405180910390fd5b805160208201fd5b63f23a6e6160e01b7bffffffffffffffffffffffffffffffffffffffffffffffffffffffff1916817bffffffffffffffffffffffffffffffffffffffffffffffffffffffff191614611b5657846040517f57f447ce000000000000000000000000000000000000000000000000000000008152600401611b4d9190612769565b60405180910390fd5b505b505050505050565b60008473ffffffffffffffffffffffffffffffffffffffff163b1115611d0c578373ffffffffffffffffffffffffffffffffffffffff1663bc197c8187878686866040518663ffffffff1660e01b8152600401611bc1959493929190612f88565b6020604051808303816000875af1925050508015611bfd57506040513d601f19601f82011682018060405250810190611bfa9190612f5b565b60015b611c81573d8060008114611c2d576040519150601f19603f3d011682016040523d82523d6000602084013e611c32565b606091505b506000815103611c7957846040517f57f447ce000000000000000000000000000000000000000000000000000000008152600401611c709190612769565b60405180910390fd5b805160208201fd5b63bc197c8160e01b7bffffffffffffffffffffffffffffffffffffffffffffffffffffffff1916817bffffffffffffffffffffffffffffffffffffffffffffffffffffffff191614611d0a57846040517f57f447ce000000000000000000000000000000000000000000000000000000008152600401611d019190612769565b60405180910390fd5b505b505050505050565b6000604051905090565b600080fd5b600080fd5b600073ffffffffffffffffffffffffffffffffffffffff82169050919050565b6000611d5382611d28565b9050919050565b611d6381611d48565b8114611d6e57600080fd5b50565b600081359050611d8081611d5a565b92915050565b6000819050919050565b611d9981611d86565b8114611da457600080fd5b50565b600081359050611db681611d90565b92915050565b60008060408385031215611dd357611dd2611d1e565b5b6000611de185828601611d71565b9250506020611df285828601611da7565b9150509250929050565b611e0581611d86565b82525050565b6000602082019050611e206000830184611dfc565b92915050565b60007fffffffff0000000000000000000000000000000000000000000000000000000082169050919050565b611e5b81611e26565b8114611e6657600080fd5b50565b600081359050611e7881611e52565b92915050565b600060208284031215611e9457611e93611d1e565b5b6000611ea284828501611e69565b91505092915050565b60008115159050919050565b611ec081611eab565b82525050565b6000602082019050611edb6000830184611eb7565b92915050565b600080fd5b600080fd5b6000601f19601f8301169050919050565b7f4e487b7100000000000000000000000000000000000000000000000000000000600052604160045260246000fd5b611f3482611eeb565b810181811067ffffffffffffffff82111715611f5357611f52611efc565b5b80604052505050565b6000611f66611d14565b9050611f728282611f2b565b919050565b600067ffffffffffffffff821115611f9257611f91611efc565b5b611f9b82611eeb565b9050602081019050919050565b82818337600083830152505050565b6000611fca611fc584611f77565b611f5c565b905082815260208101848484011115611fe657611fe5611ee6565b5b611ff1848285611fa8565b509392505050565b600082601f83011261200e5761200d611ee1565b5b813561201e848260208601611fb7565b91505092915050565b60006020828403121561203d5761203c611d1e565b5b600082013567ffffffffffffffff81111561205b5761205a611d23565b5b61206784828501611ff9565b91505092915050565b60006020828403121561208657612085611d1e565b5b600061209484828501611da7565b91505092915050565b600081519050919050565b600082825260208201905092915050565b60005b838110156120d75780820151818401526020810190506120bc565b60008484015250505050565b60006120ee8261209d565b6120f881856120a8565b93506121088185602086016120b9565b61211181611eeb565b840191505092915050565b6000602082019050818103600083015261213681846120e3565b905092915050565b600067ffffffffffffffff82111561215957612158611efc565b5b602082029050602081019050919050565b600080fd5b600061218261217d8461213e565b611f5c565b905080838252602082019050602084028301858111156121a5576121a461216a565b5b835b818110156121ce57806121ba8882611da7565b8452602084019350506020810190506121a7565b5050509392505050565b600082601f8301126121ed576121ec611ee1565b5b81356121fd84826020860161216f565b91505092915050565b600067ffffffffffffffff82111561222157612220611efc565b5b61222a82611eeb565b9050602081019050919050565b600061224a61224584612206565b611f5c565b90508281526020810184848401111561226657612265611ee6565b5b612271848285611fa8565b509392505050565b600082601f83011261228e5761228d611ee1565b5b813561229e848260208601612237565b91505092915050565b600080600080608085870312156122c1576122c0611d1e565b5b60006122cf87828801611d71565b945050602085013567ffffffffffffffff8111156122f0576122ef611d23565b5b6122fc878288016121d8565b935050604085013567ffffffffffffffff81111561231d5761231c611d23565b5b612329878288016121d8565b925050606085013567ffffffffffffffff81111561234a57612349611d23565b5b61235687828801612279565b91505092959194509250565b600080600080600060a0868803121561237e5761237d611d1e565b5b600061238c88828901611d71565b955050602061239d88828901611d71565b945050604086013567ffffffffffffffff8111156123be576123bd611d23565b5b6123ca888289016121d8565b935050606086013567ffffffffffffffff8111156123eb576123ea611d23565b5b6123f7888289016121d8565b925050608086013567ffffffffffffffff81111561241857612417611d23565b5b61242488828901612279565b9150509295509295909350565b600067ffffffffffffffff82111561244c5761244b611efc565b5b602082029050602081019050919050565b600061247061246b84612431565b611f5c565b905080838252602082019050602084028301858111156124935761249261216a565b5b835b818110156124bc57806124a88882611d71565b845260208401935050602081019050612495565b5050509392505050565b600082601f8301126124db576124da611ee1565b5b81356124eb84826020860161245d565b91505092915050565b6000806040838503121561250b5761250a611d1e565b5b600083013567ffffffffffffffff81111561252957612528611d23565b5b612535858286016124c6565b925050602083013567ffffffffffffffff81111561255657612555611d23565b5b612562858286016121d8565b9150509250929050565b600081519050919050565b600082825260208201905092915050565b6000819050602082019050919050565b6125a181611d86565b82525050565b60006125b38383612598565b60208301905092915050565b6000602082019050919050565b60006125d78261256c565b6125e18185612577565b93506125ec83612588565b8060005b8381101561261d57815161260488826125a7565b975061260f836125bf565b9250506001810190506125f0565b5085935050505092915050565b6000602082019050818103600083015261264481846125cc565b905092915050565b60008060006060848603121561266557612664611d1e565b5b600061267386828701611d71565b935050602084013567ffffffffffffffff81111561269457612693611d23565b5b6126a0868287016121d8565b925050604084013567ffffffffffffffff8111156126c1576126c0611d23565b5b6126cd868287016121d8565b9150509250925092565b600080600080608085870312156126f1576126f0611d1e565b5b60006126ff87828801611d71565b945050602061271087828801611da7565b935050604061272187828801611da7565b925050606085013567ffffffffffffffff81111561274257612741611d23565b5b61274e87828801612279565b91505092959194509250565b61276381611d48565b82525050565b600060208201905061277e600083018461275a565b92915050565b61278d81611eab565b811461279857600080fd5b50565b6000813590506127aa81612784565b92915050565b600080604083850312156127c7576127c6611d1e565b5b60006127d585828601611d71565b92505060206127e68582860161279b565b9150509250929050565b6000806040838503121561280757612806611d1e565b5b600061281585828601611d71565b925050602061282685828601611d71565b9150509250929050565b600080600080600060a0868803121561284c5761284b611d1e565b5b600061285a88828901611d71565b955050602061286b88828901611d71565b945050604061287c88828901611da7565b935050606061288d88828901611da7565b925050608086013567ffffffffffffffff8111156128ae576128ad611d23565b5b6128ba88828901612279565b9150509295509295909350565b6000602082840312156128dd576128dc611d1e565b5b60006128eb84828501611d71565b91505092915050565b60008060006060848603121561290d5761290c611d1e565b5b600061291b86828701611d71565b935050602061292c86828701611da7565b925050604061293d86828701611da7565b9150509250925092565b7f4e487b7100000000000000000000000000000000000000000000000000000000600052602260045260246000fd5b6000600282049050600182168061298e57607f821691505b6020821081036129a1576129a0612947565b5b50919050565b60008190508160005260206000209050919050565b60006020601f8301049050919050565b600082821b905092915050565b600060088302612a097fffffffffffffffffffffffffffffffffffffffffffffffffffffffffffffffff826129cc565b612a1386836129cc565b95508019841693508086168417925050509392505050565b6000819050919050565b6000612a50612a4b612a4684611d86565b612a2b565b611d86565b9050919050565b6000819050919050565b612a6a83612a35565b612a7e612a7682612a57565b8484546129d9565b825550505050565b600090565b612a93612a86565b612a9e818484612a61565b505050565b5b81811015612ac257612ab7600082612a8b565b600181019050612aa4565b5050565b601f821115612b0757612ad8816129a7565b612ae1846129bc565b81016020851015612af0578190505b612b04612afc856129bc565b830182612aa3565b50505b505050565b600082821c905092915050565b6000612b2a60001984600802612b0c565b1980831691505092915050565b6000612b438383612b19565b9150826002028217905092915050565b612b5c8261209d565b67ffffffffffffffff811115612b7557612b74611efc565b5b612b7f8254612976565b612b8a828285612ac6565b600060209050601f831160018114612bbd5760008415612bab578287015190505b612bb58582612b37565b865550612c1d565b601f198416612bcb866129a7565b60005b82811015612bf357848901518255600182019150602085019450602081019050612bce565b86831015612c105784890151612c0c601f891682612b19565b8355505b6001600288020188555050505b505050505050565b600081905092915050565b60008154612c3d81612976565b612c478186612c25565b94506001821660008114612c625760018114612c7757612caa565b60ff1983168652811515820286019350612caa565b612c80856129a7565b60005b83811015612ca257815481890152600182019150602081019050612c83565b838801955050505b50505092915050565b6000612cbe8261209d565b612cc88185612c25565b9350612cd88185602086016120b9565b80840191505092915050565b6000612cf08285612c30565b9150612cfc8284612cb3565b91508190509392505050565b6000604082019050612d1d600083018561275a565b612d2a602083018461275a565b9392505050565b6000604082019050612d466000830185611dfc565b612d536020830184611dfc565b9392505050565b7f4e487b7100000000000000000000000000000000000000000000000000000000600052603260045260246000fd5b7f4e487b7100000000000000000000000000000000000000000000000000000000600052601260045260246000fd5b6000608082019050612dcd600083018761275a565b612dda6020830186611dfc565b612de76040830185611dfc565b612df46060830184611dfc565b95945050505050565b7f4e487b7100000000000000000000000000000000000000000000000000000000600052601160045260246000fd5b6000612e3782611d86565b9150612e4283611d86565b9250828201905080821115612e5a57612e59612dfd565b5b92915050565b60006040820190508181036000830152612e7a81856125cc565b90508181036020830152612e8e81846125cc565b90509392505050565b600081519050919050565b600082825260208201905092915050565b6000612ebe82612e97565b612ec88185612ea2565b9350612ed88185602086016120b9565b612ee181611eeb565b840191505092915050565b600060a082019050612f01600083018861275a565b612f0e602083018761275a565b612f1b6040830186611dfc565b612f286060830185611dfc565b8181036080830152612f3a8184612eb3565b90509695505050505050565b600081519050612f5581611e52565b92915050565b600060208284031215612f7157612f70611d1e565b5b6000612f7f84828501612f46565b91505092915050565b600060a082019050612f9d600083018861275a565b612faa602083018761275a565b8181036040830152612fbc81866125cc565b90508181036060830152612fd081856125cc565b90508181036080830152612fe48184612eb3565b9050969550505050505056fea2646970667358221220e0a5c263959c022b94e2cfee13f6f757eed03e1e48fe7a71fcfaac5821defe0264736f6c634300081c0033",
  "linkReferences": {},
  "deployedLinkReferences": {}
}