{
  "_format": "hh-sol-artifact-1",
  "contractName": "TestERC20",
  "sourceName": "contracts/TestERC20.sol",
  "abi": [
    {
      "inputs": [
        {
          "internalType": "string",
          "name": "_name",
          "type": "string"
        },
        {
          "internalType": "string",
          "name": "_symbol",
          "type": "string"
        },
        {
          "internalType": "uint8",
          "name": "_decimals",
          "type": "uint8"
        }
      ],
      "stateMutability": "nonpayable",
      "type": "constructor"
    },
    {
      "anonymous": false,
      "inputs": [
        {
          "indexed": true,
          "internalType": "address",
          "name": "owner",
          "type": "address"
        },
        {
          "indexed": true,
          "internalType": "address",
          "name": "spender",
          "type": "address"
        },
        {
          "indexed": false,
          "internalType": "uint256",
          "name": "value",
          "type": "uint256"
        }
      ],
      "name": "Approval",
      "type": "event"
    },
    {
      "anonymous": false,
      "inputs": [
        {
          "indexed": true,
          "internalType": "address",
          "name": "from",
          "type": "address"
        },
        {
          "indexed": true,
          "internalType": "address",
          "name": "to",
          "type": "address"
        },
        {
          "indexed": false,
          "internalType": "uint256",
          "name": "value",
          "type": "uint256"
        }
      ],
      "name": "Transfer",
      "type": "event"
    },
    {
      "inputs": [
        {
          "internalType": "address",
          "name": "",
          "type": "address"
        },
        {
          "internalType": "address",
          "name": "",
          "type": "address"
        }
      ],
      "name": "allowance",
      "outputs": [
        {
          "internalType": "uint256",
          "name": "",
          "type": "uint256"
        }
      ],
      "stateMutability": "view",
      "type": "function"
    },
    {
      "inputs": [
        {
          "internalType": "address",
          "name": "_spender",
          "type": "address"
        },
        {
          "internalType": "uint256",
          "name": "_value",
          "type": "uint256"
        }
      ],
      "name": "approve",
      "outputs": [
        {
          "internalType": "bool",
          "name": "",
          "type": "bool"
        }
      ],
      "stateMutability": "nonpayable",
      "type": "function"
    },
    {
      "inputs": [
        {
          "internalType": "address",
          "name": "",
          "type": "address"
        }
      ],
      "name": "balanceOf",
      "outputs": [
        {
          "internalType": "uint256",
          "name": "",
          "type": "uint256"
        }
      ],
      "stateMutability": "view",
      "type": "function"
    },
    {
      "inputs": [
        {
          "internalType": "address",
          "name": "_from",
          "type": "address"
        },
        {
          "internalType": "uint256",
          "name": "_amount",
          "type": "uint256"
        }
      ],
      "name": "burn",
      "outputs": [],
      "stateMutability": "nonpayable",
      "type": "function"
    },
    {
      "inputs": [
        {
          "internalType": "address",
          "name": "_owner",
          "type": "address"
        },
        {
          "internalType": "address",
          "name": "_spender",
          "type": "address"
        }
      ],
      "name": "checkAllowance",
      "outputs": [
        {
          "internalType": "uint256",
          "name": "",
          "type": "uint256"
        }
      ],
      "stateMutability": "view",
      "type": "function"
    },
    {
      "inputs": [],
      "name": "decimals",
      "outputs": [
        {
          "internalType": "uint8",
          "name": "",
          "type": "uint8"
        }
      ],
      "stateMutability": "view",
      "type": "function"
    },
    {
      "inputs": [
        {
          "internalType": "address",
          "name": "_to",
          "type": "address"
        },
        {
          "internalType": "uint256",
          "name": "_amount",
          "type": "uint256"
        }
      ],
      "name": "mint",
      "outputs": [],
      "stateMutability": "nonpayable",
      "type": "function"
    },
    {
      "inputs": [],
      "name": "name",
      "outputs": [
        {
          "internalType": "string",
          "name": "",
          "type": "string"
        }
      ],
      "stateMutability": "view",
      "type": "function"
    },
    {
      "inputs": [],
      "name": "symbol",
      "outputs": [
        {
          "internalType": "string",
          "name": "",
          "type": "string"
        }
      ],
      "stateMutability": "view",
      "type": "function"
    },
    {
      "inputs": [],
      "name": "totalSupply",
      "outputs": [
        {
          "internalType": "uint256",
          "name": "",
          "type": "uint256"
        }
      ],
      "stateMutability": "view",
      "type": "function"
    },
    {
      "inputs": [
        {
          "internalType": "address",
          "name": "_to",
          "type": "address"
        },
        {
          "internalType": "uint256",
          "name": "_value",
          "type": "uint256"
        }
      ],
      "name": "transfer",
      "outputs": [
        {
          "internalType": "bool",
          "name": "",
          "type": "bool"
        }
      ],
      "stateMutability": "nonpayable",
      "type": "function"
    },
    {
      "inputs": [
        {
          "internalType": "address",
          "name": "_from",
          "type": "address"
        },
        {
          "internalType": "address",
          "name": "_to",
          "type": "address"
        },
        {
          "internalType": "uint256",
          "name": "_value",
          "type": "uint256"
        }
      ],
      "name": "transferFrom",
      "outputs": [
        {
          "internalType": "bool",
          "name": "",
          "type": "bool"
        }
      ],
      "stateMutability": "nonpayable",
      "type": "function"
    }
  ],
  "bytecode": "0x608060405234801561001057600080fd5b50604051611b25380380611b258339818101604052810190610032919061028e565b61004c6749b77ec177e07ad260c01b6100dd60201b60201c565b61006667b827844364cfe90460c01b6100dd60201b60201c565b8260009081610075919061053a565b50610090676055b402dc130caf60c01b6100dd60201b60201c565b816001908161009f919061053a565b506100ba6721da74ced0ed259f60c01b6100dd60201b60201c565b80600260006101000a81548160ff021916908360ff16021790555050505061060c565b50565b6000604051905090565b600080fd5b600080fd5b600080fd5b600080fd5b6000601f19601f8301169050919050565b7f4e487b7100000000000000000000000000000000000000000000000000000000600052604160045260246000fd5b610147826100fe565b810181811067ffffffffffffffff821117156101665761016561010f565b5b80604052505050565b60006101796100e0565b9050610185828261013e565b919050565b600067ffffffffffffffff8211156101a5576101a461010f565b5b6101ae826100fe565b9050602081019050919050565b60005b838110156101d95780820151818401526020810190506101be565b60008484015250505050565b60006101f86101f38461018a565b61016f565b905082815260208101848484011115610214576102136100f9565b5b61021f8482856101bb565b509392505050565b600082601f83011261023c5761023b6100f4565b5b815161024c8482602086016101e5565b91505092915050565b600060ff82169050919050565b61026b81610255565b811461027657600080fd5b50565b60008151905061028881610262565b92915050565b6000806000606084860312156102a7576102a66100ea565b5b600084015167ffffffffffffffff8111156102c5576102c46100ef565b5b6102d186828701610227565b935050602084015167ffffffffffffffff8111156102f2576102f16100ef565b5b6102fe86828701610227565b925050604061030f86828701610279565b9150509250925092565b600081519050919050565b7f4e487b7100000000000000000000000000000000000000000000000000000000600052602260045260246000fd5b6000600282049050600182168061036b57607f821691505b60208210810361037e5761037d610324565b5b50919050565b60008190508160005260206000209050919050565b60006020601f8301049050919050565b600082821b905092915050565b6000600883026103e67fffffffffffffffffffffffffffffffffffffffffffffffffffffffffffffffff826103a9565b6103f086836103a9565b95508019841693508086168417925050509392505050565b6000819050919050565b6000819050919050565b600061043761043261042d84610408565b610412565b610408565b9050919050565b6000819050919050565b6104518361041c565b61046561045d8261043e565b8484546103b6565b825550505050565b600090565b61047a61046d565b610485818484610448565b505050565b5b818110156104a95761049e600082610472565b60018101905061048b565b5050565b601f8211156104ee576104bf81610384565b6104c884610399565b810160208510156104d7578190505b6104eb6104e385610399565b83018261048a565b50505b505050565b600082821c905092915050565b6000610511600019846008026104f3565b1980831691505092915050565b600061052a8383610500565b9150826002028217905092915050565b61054382610319565b67ffffffffffffffff81111561055c5761055b61010f565b5b6105668254610353565b6105718282856104ad565b600060209050601f8311600181146105a45760008415610592578287015190505b61059c858261051e565b865550610604565b601f1984166105b286610384565b60005b828110156105da578489015182556001820191506020850194506020810190506105b5565b868310156105f757848901516105f3601f891682610500565b8355505b6001600288020188555050505b505050505050565b61150a8061061b6000396000f3fe608060405234801561001057600080fd5b50600436106100b45760003560e01c806370a082311161007157806370a082311461018f5780638b099b23146101bf57806395d89b41146101ef5780639dc29fac1461020d578063a9059cbb14610229578063dd62ed3e14610259576100b4565b806306fdde03146100b9578063095ea7b3146100d757806318160ddd1461010757806323b872dd14610125578063313ce5671461015557806340c10f1914610173575b600080fd5b6100c1610289565b6040516100ce91906110b3565b60405180910390f35b6100f160048036038101906100ec919061116e565b610317565b6040516100fe91906111c9565b60405180910390f35b61010f610481565b60405161011c91906111f3565b60405180910390f35b61013f600480360381019061013a919061120e565b610487565b60405161014c91906111c9565b60405180910390f35b61015d6108b9565b60405161016a919061127d565b60405180910390f35b61018d6004803603810190610188919061116e565b6108cc565b005b6101a960048036038101906101a49190611298565b610a08565b6040516101b691906111f3565b60405180910390f35b6101d960048036038101906101d491906112c5565b610a20565b6040516101e691906111f3565b60405180910390f35b6101f7610ae3565b60405161020491906110b3565b60405180910390f35b6102276004803603810190610222919061116e565b610b71565b005b610243600480360381019061023e919061116e565b610d80565b60405161025091906111c9565b60405180910390f35b610273600480360381019061026e91906112c5565b610ffb565b60405161028091906111f3565b60405180910390f35b6000805461029690611334565b80601f01602080910402602001604051908101604052809291908181526020018280546102c290611334565b801561030f5780601f106102e45761010080835404028352916020019161030f565b820191906000526020600020905b8154815290600101906020018083116102f257829003601f168201915b505050505081565b600061032d67661c871bc67a8d3660c01b611020565b61034167e65ab273d2061ad660c01b611020565b81600560003373ffffffffffffffffffffffffffffffffffffffff1673ffffffffffffffffffffffffffffffffffffffff16815260200190815260200160002060008573ffffffffffffffffffffffffffffffffffffffff1673ffffffffffffffffffffffffffffffffffffffff168152602001908152602001600020819055506103d6675f6f71d7b437609760c01b611020565b6103ea673833be775f63180a60c01b611020565b8273ffffffffffffffffffffffffffffffffffffffff163373ffffffffffffffffffffffffffffffffffffffff167f8c5be1e5ebec7d5bd14f71427d1e84f3dd0314c0f7b2291e5b200ac8c7c3b9258460405161044791906111f3565b60405180910390a3610463676b148263cb8ae22e60c01b611020565b610477679543ccc720f1b92e60c01b611020565b6001905092915050565b60035481565b600061049d671c4e717921e0079d60c01b611020565b6104b1677b7291b217fc9fa060c01b611020565b6104c56742131f7b12f217d660c01b611020565b6104d9674667e943ba2fbcf360c01b611020565b81600560008673ffffffffffffffffffffffffffffffffffffffff1673ffffffffffffffffffffffffffffffffffffffff16815260200190815260200160002060003373ffffffffffffffffffffffffffffffffffffffff1673ffffffffffffffffffffffffffffffffffffffff168152602001908152602001600020541015610598576040517f08c379a000000000000000000000000000000000000000000000000000000000815260040161058f906113b1565b60405180910390fd5b6105ac6788da29fdea401dc960c01b611020565b6105c067dedd056fb9eff97260c01b611020565b6105d4670b0114a44366816960c01b611020565b6105e867ee9da8061387e21f60c01b611020565b81600460008673ffffffffffffffffffffffffffffffffffffffff1673ffffffffffffffffffffffffffffffffffffffff16815260200190815260200160002054101561066a576040517f08c379a00000000000000000000000000000000000000000000000000000000081526004016106619061141d565b60405180910390fd5b61067e6755435944631d944560c01b611020565b6106926777da457c65a5ff7260c01b611020565b81600460008673ffffffffffffffffffffffffffffffffffffffff1673ffffffffffffffffffffffffffffffffffffffff16815260200190815260200160002060008282546106e1919061146c565b925050819055506106fc67774a1a1cc829b72060c01b611020565b81600460008573ffffffffffffffffffffffffffffffffffffffff1673ffffffffffffffffffffffffffffffffffffffff168152602001908152602001600020600082825461074b91906114a0565b92505081905550610766679aa5f33c236ab5a260c01b611020565b81600560008673ffffffffffffffffffffffffffffffffffffffff1673ffffffffffffffffffffffffffffffffffffffff16815260200190815260200160002060003373ffffffffffffffffffffffffffffffffffffffff1673ffffffffffffffffffffffffffffffffffffffff16815260200190815260200160002060008282546107f2919061146c565b9250508190555061080d67a07308eb0cf34e8960c01b611020565b61082167c7288dac92534c8960c01b611020565b8273ffffffffffffffffffffffffffffffffffffffff168473ffffffffffffffffffffffffffffffffffffffff167fddf252ad1be2c89b69c2b068fc378daa952ba7f163c4a11628f55a4df523b3ef8460405161087e91906111f3565b60405180910390a361089a67a1da351c6dad8fb760c01b611020565b6108ae6796b0878905dc372660c01b611020565b600190509392505050565b600260009054906101000a900460ff1681565b6108e067cc751cbdbda46ab460c01b611020565b6108f467dbc381f2e56c882260c01b611020565b80600460008473ffffffffffffffffffffffffffffffffffffffff1673ffffffffffffffffffffffffffffffffffffffff168152602001908152602001600020600082825461094391906114a0565b9250508190555061095e6751245050b5a35baa60c01b611020565b806003600082825461097091906114a0565b9250508190555061098a66773f03969a622c60c01b611020565b61099e67ab441ff5d00fc4d160c01b611020565b8173ffffffffffffffffffffffffffffffffffffffff16600073ffffffffffffffffffffffffffffffffffffffff167fddf252ad1be2c89b69c2b068fc378daa952ba7f163c4a11628f55a4df523b3ef836040516109fc91906111f3565b60405180910390a35050565b60046020528060005260406000206000915090505481565b6000610a36676f67f608751eabc460c01b611020565b610a4a674375f083fc8abd9d60c01b611020565b610a5e675f2670148b82b25560c01b611020565b600560008473ffffffffffffffffffffffffffffffffffffffff1673ffffffffffffffffffffffffffffffffffffffff16815260200190815260200160002060008373ffffffffffffffffffffffffffffffffffffffff1673ffffffffffffffffffffffffffffffffffffffff16815260200190815260200160002054905092915050565b60018054610af090611334565b80601f0160208091040260200160405190810160405280929190818152602001828054610b1c90611334565b8015610b695780601f10610b3e57610100808354040283529160200191610b69565b820191906000526020600020905b815481529060010190602001808311610b4c57829003601f168201915b505050505081565b610b8567b30d43c1278b906760c01b611020565b610b996752353fc7286d08b960c01b611020565b610bad6750530a07dfbd313c60c01b611020565b610bc1674f8f8c22ced3c91260c01b611020565b80600460008473ffffffffffffffffffffffffffffffffffffffff1673ffffffffffffffffffffffffffffffffffffffff168152602001908152602001600020541015610c43576040517f08c379a0000000000000000000000000000000000000000000000000000000008152600401610c3a9061141d565b60405180910390fd5b610c5767a780266710f9278560c01b611020565b610c6b67e418ffd9ba66512160c01b611020565b80600460008473ffffffffffffffffffffffffffffffffffffffff1673ffffffffffffffffffffffffffffffffffffffff1681526020019081526020016000206000828254610cba919061146c565b92505081905550610cd567ed73f26a381c675660c01b611020565b8060036000828254610ce7919061146c565b92505081905550610d0267dd3c21c161dc259860c01b611020565b610d16674c272737c289e02f60c01b611020565b600073ffffffffffffffffffffffffffffffffffffffff168273ffffffffffffffffffffffffffffffffffffffff167fddf252ad1be2c89b69c2b068fc378daa952ba7f163c4a11628f55a4df523b3ef83604051610d7491906111f3565b60405180910390a35050565b6000610d966721afbbf448a4770360c01b611020565b610daa6720105b4b8365e3b960c01b611020565b610dbe67f5e60efe424b683960c01b611020565b610dd267e3916911b2418c0d60c01b611020565b81600460003373ffffffffffffffffffffffffffffffffffffffff1673ffffffffffffffffffffffffffffffffffffffff168152602001908152602001600020541015610e54576040517f08c379a0000000000000000000000000000000000000000000000000000000008152600401610e4b9061141d565b60405180910390fd5b610e6867174ef8634065d41960c01b611020565b610e7c67b6714040a764845360c01b611020565b81600460003373ffffffffffffffffffffffffffffffffffffffff1673ffffffffffffffffffffffffffffffffffffffff1681526020019081526020016000206000828254610ecb919061146c565b92505081905550610ee667f599bed68979de0160c01b611020565b81600460008573ffffffffffffffffffffffffffffffffffffffff1673ffffffffffffffffffffffffffffffffffffffff1681526020019081526020016000206000828254610f3591906114a0565b92505081905550610f5067570ac0490db35ad260c01b611020565b610f646701912ad1f0f1031b60c01b611020565b8273ffffffffffffffffffffffffffffffffffffffff163373ffffffffffffffffffffffffffffffffffffffff167fddf252ad1be2c89b69c2b068fc378daa952ba7f163c4a11628f55a4df523b3ef84604051610fc191906111f3565b60405180910390a3610fdd6796debdd480bea00160c01b611020565b610ff16763b4138a8793a7eb60c01b611020565b6001905092915050565b6005602052816000526040600020602052806000526040600020600091509150505481565b50565b600081519050919050565b600082825260208201905092915050565b60005b8381101561105d578082015181840152602081019050611042565b60008484015250505050565b6000601f19601f8301169050919050565b600061108582611023565b61108f818561102e565b935061109f81856020860161103f565b6110a881611069565b840191505092915050565b600060208201905081810360008301526110cd818461107a565b905092915050565b600080fd5b600073ffffffffffffffffffffffffffffffffffffffff82169050919050565b6000611105826110da565b9050919050565b611115816110fa565b811461112057600080fd5b50565b6000813590506111328161110c565b92915050565b6000819050919050565b61114b81611138565b811461115657600080fd5b50565b60008135905061116881611142565b92915050565b60008060408385031215611185576111846110d5565b5b600061119385828601611123565b92505060206111a485828601611159565b9150509250929050565b60008115159050919050565b6111c3816111ae565b82525050565b60006020820190506111de60008301846111ba565b92915050565b6111ed81611138565b82525050565b600060208201905061120860008301846111e4565b92915050565b600080600060608486031215611227576112266110d5565b5b600061123586828701611123565b935050602061124686828701611123565b925050604061125786828701611159565b9150509250925092565b600060ff82169050919050565b61127781611261565b82525050565b6000602082019050611292600083018461126e565b92915050565b6000602082840312156112ae576112ad6110d5565b5b60006112bc84828501611123565b91505092915050565b600080604083850312156112dc576112db6110d5565b5b60006112ea85828601611123565b92505060206112fb85828601611123565b9150509250929050565b7f4e487b7100000000000000000000000000000000000000000000000000000000600052602260045260246000fd5b6000600282049050600182168061134c57607f821691505b60208210810361135f5761135e611305565b5b50919050565b7f416c6c6f77616e63652065786365656465640000000000000000000000000000600082015250565b600061139b60128361102e565b91506113a682611365565b602082019050919050565b600060208201905081810360008301526113ca8161138e565b9050919050565b7f496e73756666696369656e742062616c616e6365000000000000000000000000600082015250565b600061140760148361102e565b9150611412826113d1565b602082019050919050565b60006020820190508181036000830152611436816113fa565b9050919050565b7f4e487b7100000000000000000000000000000000000000000000000000000000600052601160045260246000fd5b600061147782611138565b915061148283611138565b925082820390508181111561149a5761149961143d565b5b92915050565b60006114ab82611138565b91506114b683611138565b92508282019050808211156114ce576114cd61143d565b5b9291505056fea2646970667358221220c6c9956d01616a39464177984004beac2787f47342da0de0eed9193d9d795d1964736f6c634300081c0033",
  "linkReferences": {},
  "deployedLinkReferences": {}
}